:1000000000000220CD1D0000F91D0000F91D0000B8
:10001000F91D0000F91D0000F91D0000F91D000088
:10002000F91D0000F91D0000F91D0000F91D000078
:10003000F91D0000F91D0000F91D0000F91D000068
:10004000F91D0000F91D0000F91D0000F91D000058
:10005000F91D0000F91D0000F91D0000F91D000048
:10006000F91D0000F91D0000F91D0000F91D000038
:10007000F91D0000F91D0000F91D0000F91D000028
:10008000F91D0000F91D0000F91D0000F91D000018
:10009000F91D0000F91D0000F91D0000F91D000008
:1000A000F91D0000F91D0000F91D0000F91D0000F8
:1000B000F91D0000F91D0000F91D0000F91D0000E8
:1000C000F91D0000F91D0000F91D0000F91D0000D8
:1000D000F91D0000F91D0000F91D000010B5054CC8
:1000E000237833B9044B13B10448AFF300800123E4
:1000F000237010BD7400002000000000AC2200003E
:1001000008B5064B1BB106480649AFF30080064808
:10011000036813B1054B03B1984708BD0000000008
:10012000AC220000780000207000002000000000D9
:10013000154B002B08BF134B9D46A3F5803A0021B9
:100140008B460F461348144A121A01F08BFF0F4BCF
:10015000002B00D098470E4B002B00D09847002072
:10016000002104000D000D48002802D00C48AFF318
:10017000008001F051FF2000290000F081F801F01B
:1001800037FF00BF00000800000002200000000050
:100190000000000074000020980000200000000013
:1001A0000000000080B500AF00F006F800F01AF87B
:1001B00000F02CF880BD00BF80B500AF074B074AA8
:1001C000126822F003021A60044B044A126822F0FB
:1001D0000C021A60024801F0CFFE80BD00800C4086
:1001E000006CDC0280B500AF1120042100F00CFF90
:1001F0000448012100F000FD0348012100F0FCFC4F
:1002000080BD00BF4081040000D2040080B400AF74
:10021000BD465DF8047B704780B582B000AF0C4BE3
:100220001B687B603B46184601F004FC7B681B0E94
:100230000F2B0AD93B78032B07D1064B054A1268CE
:1002400022F0500242F010021A600837BD4680BD0D
:10025000FC81E00FC0800C4080B483B000AF00236D
:100260007B6002E07B6801337B607A68034B9A42D3
:10027000F8DD0C37BD465DF8047B70471FA1070011
:1002800080B586B000AFFFF7C7FFFFF78BFF0020F8
:1002900001F0EEFC0023FB750EE0FB7D5B0007F137
:1002A00018010B44002223F8142C3B1D184601F0C2
:1002B0003BFDFB7D0133FB75FB7D062BEDD9002358
:1002C000BB751DE000237B7514E0BB7D7A7D0121A9
:1002D00001FA02F292B25B0007F118010B4423F815
:1002E000142C3B1D184601F01FFDFFF7B5FF7B7D69
:1002F00001337B757B7D0E2BE7D9BB7D0133BB754D
:10030000BB7D062BDED900233B75F0E03B7D5B0017
:1003100007F11802134413F8142C42F0010203F8F9
:10032000142C3B1D184601F0FFFCFFF795FF3B7DA9
:100330005B0007F118010B4413F8142C42F0020281
:1003400003F8142C3B1D184601F0EEFCFFF784FF68
:100350003B7D5B0007F11802134413F8142C42F0A4
:10036000040203F8142C3B1D184601F0DDFCFFF7D6
:1003700073FF3B7D5B0007F118010B4413F8142C4D
:1003800042F0080203F8142C3B1D184601F0CCFC87
:10039000FFF762FF3B7D5B0007F11802134413F87F
:1003A000142C42F0100203F8142C3B1D184601F0E7
:1003B000BBFCFFF751FF3B7D5B0007F118010B44CD
:1003C00013F8142C42F0200203F8142C3B1D18469D
:1003D00001F0AAFCFFF740FF3B7D5B0007F118022C
:1003E000134413F8142C42F0400203F8142C3B1D64
:1003F000184601F099FCFFF72FFF3B7D5B0007F1EA
:1004000018010B4413F8142C42F0800203F8142C4A
:100410003B1D184601F088FCFFF71EFF3B7D5B008B
:1004200007F11802134413F8132C42F0010203F8E9
:10043000132C3B1D184601F077FCFFF70DFF3B7DA9
:100440005B0007F118010B4413F8132C42F0020271
:1004500003F8132C3B1D184601F066FCFFF7FCFE69
:100460003B7D5B0007F11802134413F8132C42F094
:10047000040203F8132C3B1D184601F055FCFFF74E
:10048000EBFE3B7D5B0007F118010B4413F8132CC6
:1004900042F0080203F8132C3B1D184601F044FCFF
:1004A000FFF7DAFE3B7D5B0007F11802134413F8F7
:1004B000132C42F0100203F8132C3B1D184601F0D8
:1004C00033FCFFF7C9FE3B7D5B0007F118010B44CD
:1004D00013F8132C42F0200203F8132C3B1D18468E
:1004E00001F022FCFFF7B8FE3B7D01333B753B7DFD
:1004F000062B7FF60BAFCDE680B487B000AFF86077
:10050000B9607A60FB6803F10473DA00BB681344D6
:100510009B007B617B697A681A601C37BD465DF879
:10052000047B704780B485B000AF786039607B6829
:1005300003F10473DA003B6813449B00FB60FB6823
:100540001B6818461437BD465DF8047B704700BF32
:1005500080B485B000AF78607B68002B04D07B68E6
:10056000B3F5004F00D800BF7B68B3FA83F3C3F143
:100570001F03FB60FB6818461437BD465DF8047B1B
:10058000704700BF80B400AF044BDB6C1B0EDBB2C6
:100590001846BD465DF8047B704700BFB081E00F90
:1005A00080B400AF054BDB6C03F47F031B0CDBB2A4
:1005B0001846BD465DF8047B704700BFB081E00F70
:1005C00080B582B000AFFFF7EBFF03464A2B04D0A3
:1005D000792B02D0482B22D023E0144B1B699BB20D
:1005E00003F03F039BB21B02FB80104B9B699BB245
:1005F00003F0F0039AB2FB881343FB800B4BDB69DB
:1006000003F0F0031B099AB2FB881343FB80FB88BD
:10061000B3F5017F01D3064B04E0064B02E0054B26
:1006200000E0002318460837BD4680BDD0FF0FE02C
:1006300000366E010048E80180B584B000AF7860F4
:1006400039607A683B689A4294BF00230123DBB289
:10065000FB6006481E21FA68FFF74EFF0448082198
:10066000FA68FFF749FF1037BD4680BD00800C4097
:1006700004800C4080B582B000AF07481E21FFF710
:1006800051FF786005480821FFF74CFF38607B6810
:1006900018460837BD4680BD00800C4004800C40E1
:1006A00080B582B000AF214B5B6903F4E063B3F522
:1006B000007F1CD0B3F5007F05D8002B25D0B3F503
:1006C000807F1FD02AE0B3F5C06F24D0B3F5E06F70
:1006D0001ED0B3F5407F21D1FFF754FF0346122B04
:1006E00002D9134B7B601CE0124B7B6019E0FFF7D3
:1006F00049FF0346122B02D90F4B7B6011E00F4BD1
:100700007B600EE00E4B7B600BE00E4B7B6008E0E5
:100710000D4B7B6005E00D4B7B6002E000237B60AE
:1007200000BF7B6818460837BD4680BD00800C407E
:10073000804F120040420F0040B56400C0CF6A00F5
:10074000C0D8A700809FD500406F4001003FAB019B
:1007500080B582B000AF0D4800F0A6FB0346FB70E9
:10076000FB78072B05D0082B07D101F079FB7860C7
:1007700006E0FFF795FF786002E000237B6000BF92
:100780007B6818460837BD4680BD00BF06000C00D8
:1007900080B485B000AF7860284BDB6B002B0CBFBA
:1007A00000230123BB72254B41F67132DA63234BE0
:1007B0005B6803F00703FB60FB68012B01D9042B86
:1007C00002D10023FB7202E00123FB7200BF7A68B2
:1007D0001B4B9A4207D9FB7A002B01D0052300E07E
:1007E0000423FB6016E07A68154B9A420BD87A68AE
:1007F000144B9A4207D9FB7A002B01D0032300E067
:100800000123FB6006E0FB7A002B01D0022300E00D
:100810000023FB60094B094A526822F00701FA687D
:100820000A435A60BB7A002B02D0044B0022DA63E1
:100830001437BD465DF8047B704700BF00000C40D4
:100840000048E8010024F40080B500AF01F0FEFA92
:1008500003461846FFF79CFF80BD00BF90B585B0EA
:1008600000AF78600023BB607B68344A934203D0BA
:10087000334A934200D000E000BF786800F014FBD8
:100880000346FB607B682D4A934203D02C4A934277
:1008900006D00CE02B4B9B6A03F00303FB6006E0E1
:1008A000284B9B6A03F00C039B08FB6000BFFB68AE
:1008B000032B3AD801A252F823F000BFF30800003E
:1008C000CD080000D5080000DD08000001F070FB35
:1008D000B8602DE001F080FBB86029E001F09CFADF
:1008E0000446FFF7C7FE0346013324FA03F3BB6057
:1008F0001EE00023BB607A68104B9A4203D07A68EE
:100900000F4B9A4210D10F4B9A6A79680B4B994260
:1009100001D1102300E0142322FA03F3002B03D0AB
:1009200001F050FBB86003E002E00023BB6000BFB1
:10093000BB6818461437BD4690BD00BF02001800C2
:1009400003001A0000800C4080B483B000AF7860D0
:10095000094B5B6D03F00103002B00D006E000BFE4
:10096000054B1A6D7B681340002BF9D10C37BD463F
:100970005DF8047B704700BF00800C4080B582B0FA
:1009800000AF104800F090FA0346FB70FB78032B91
:1009900007D0082B09D0022B0BD101F01DFB78608A
:1009A0000AE001F005FB786006E001F059FA786092
:1009B00002E000237B6000BF7B6818460837BD4615
:1009C00080BD00BF07232000B0B584B000AF7860C1
:1009D00039607B681B0903F00F03FB60FB68013B78
:1009E000062B00F2F68001A252F823F0090A00005B
:1009F000D30B0000D30B00003D0A0000670A000083
:100A0000BB0A00007F0B00003B68002B03D03B6853
:100A1000082B00D800BFFFF717FF704B6F4A126812
:100A200022F4E0313A68013A92030A431A6001F075
:100A3000F3F9B860B868FFF7ABFECBE03B68002B7A
:100A400004D03B68B3F5007F00D800BF3868FFF7DB
:100A50007FFD3860614B614A926822F00F013A686D
:100A60000A439A60B6E03B68002B04D03B68B3F5BC
:100A7000007F00D800BFFFF7E7FE01F0F1F9024662
:100A80003B68B2FBF3F4FFF79BFD03462046194693
:100A9000FFF7D2FD3868FFF75BFD38604F4B4F4AD8
:100AA000526822F00F013A680A435A6001F0B4F923
:100AB000B860B868FFF76CFE8CE07B68484A9342E8
:100AC0001ED0474A934203D8464A934207D055E086
:100AD000454A934225D0454A93423FD04EE00420F8
:100AE000FFF732FF3868FFF733FD38603B4B3B4A76
:100AF000926E22F0F0013A6812010A439A663DE0D4
:100B00000420FFF721FF3868FFF722FD3860334BE0
:100B1000324A926E22F470613A6812020A439A666F
:100B20002CE03B680F2B03D93B68802B00D800BF1B
:100B30000420FFF709FF3868FFF70AFD3860274CEB
:100B4000264B9B6E23F440551020FFF701FD034612
:100B50003A68D31A1B032B43A3660FE00420FFF768
:100B6000F3FE3868FFF7F4FC38601C4B1B4A926EAA
:100B700022F003013A680A439A6600BF2AE07B68C4
:100B80001B4A934203D01B4A934210D020E04020DE
:100B9000FFF7DAFE3868FFF7DBFC38600F4B0F4ACF
:100BA000126F22F003013A680A431A6710E04020EE
:100BB000FFF7CAFE3868FFF7CBFC3860074B074ADF
:100BC000126F22F030013A6812010A431A6700BF1F
:100BD00000E000BF1037BD46B0BD00BF00800C4034
:100BE00060261200601610006000240060062800D5
:100BF000700714007017160090B587B000AF7860CA
:100C00000B46FB7000233B617B681B0A03F00F035C
:100C1000013B092B49D801A252F823F0610C0000D6
:100C2000670C0000450C0000AB0C0000AB0C000092
:100C30006D0C0000770C0000AB0C0000AB0C00004A
:100C4000810C00001B4B7B611B4800F041F80446FF
:100C5000FFF7B6FC034620461946FFF7EDFC12E00D
:100C6000164B7B610FE0164B7B610CE0154B7B61F3
:100C700001233B6107E0144B7B6110233B6102E0E1
:100C8000124B7B6100BF7B681B0B03F01F03FB60F3
:100C90003B69002B02D03869FFF756FEFB78786974
:100CA000F9681A46FFF728FC00E000BF1C37BD4674
:100CB00090BD00BF40800C400043020008800C4003
:100CC00044800C4058800C4060800C4078800C4080
:100CD00090B585B000AF78607B6803F47813B3F506
:100CE000A01F00F0AB80B3F5A01F1AD8B3F5402FBA
:100CF00000F0BF80B3F5402F08D8B3F5003F3CD0DB
:100D0000B3F5802F2DD0002B27D0BEE0B3F5801F88
:100D10003CD0B3F5901F47D0B3F5602F00F0AD8005
:100D2000B3E0B3F5001F00F0AC80B3F5001F0AD8A4
:100D3000B3F5C01F25D0B3F5D01F7AD0B3F5B01FDF
:100D400000F08980A1E0B3F5181F4ED0B3F5201F45
:100D500062D0B3F5101F35D097E001F081F8F8604C
:100D600096E001F07DF8F8604C4B9B6803F00F03B0
:100D7000FA6822FA03F3FB608AE001F04DF8F860AC
:100D800086E04748FFF76AFDF86081E04448FFF7D6
:100D900065FDF860414B9B6E03F0F0031B09FA6898
:100DA00022FA03F3FB6073E03D48FFF757FDF8605C
:100DB0003A4B9B6E03F470631B0AFA6822FA03F342
:100DC000FB6065E03648FFF749FDF860334B9B6EEA
:100DD00003F440531C0B1020FFF7BAFB03462344D7
:100DE000FA6822FA03F3FB6052E02D48FFF736FD64
:100DF000F8602A4B9B6E03F440531B0BFA6822FAEF
:100E000003F3FB60254BDB6F03F007030133FA6844
:100E1000B2FBF3F3FB603BE02148FFF71FFDF860F6
:100E20001E4B9B6E03F00303FA6822FA03F3FB6088
:100E30002EE01C48FFF712FDF86029E01948FFF783
:100E40000DFDF860154B1B6F03F00303FA6822FADF
:100E500003F3FB601CE01348FFF700FDF8600F4B45
:100E60001B6F03F030031B09FA6822FA03F3FB60DF
:100E70000EE0FFF76DFCF8600AE0FFF711FCF86088
:100E800006E0FFF77BFDF86002E00023FB6000BF97
:100E9000FB6818461437BD4690BD00BF00800C406B
:100EA0000200180003001A0080B485B000AF78601B
:100EB0000123FB737B6803F00F03BB60BB68013B3E
:100EC000062B00F2958001A252F823F0E90E0000F3
:100ED0001F0F00005B0F0000F10F0000F10F00007A
:100EE000970F0000BD0F0000464BDB6A03F4705300
:100EF000B3F5805F09D0B3F5005F03D0B3F5006FA1
:100F000006D008E00223FB7308E00323FB7305E02F
:100F10000423FB7302E00523FB7300BF6BE0394B36
:100F20009B6A03F00303022B06D0032B07D0012B8F
:100F300008D10323FB730FE00223FB730CE00623AD
:100F4000FB7309E02F4B9B6A03F48033002B02D024
:100F50000923FB7300E000BF4DE02A4B9B6A03F0BE
:100F60000C03082B06D00C2B07D0042B08D103232D
:100F7000FB730FE00223FB730CE00623FB7309E015
:100F8000204B9B6A03F48013002B02D00923FB73D0
:100F900000E000BF2FE00723FB731A4B1B6803F030
:100FA0008053002B03D0B3F1805F03D023E00723ED
:100FB000FB7302E00823FB7300BF1CE0114BDB6AEC
:100FC00003F46033B3F5803F08D0B3F5003F08D099
:100FD000B3F5004F08D10823FB7308E00223FB732D
:100FE00005E00323FB7302E00123FB7300BF02E073
:100FF0000023FB7300BFFB7B18461437BD465DF82A
:10100000047B704700800C4090B589B000AF7860D9
:101010000B46FB700323FB610323FB7600233B613C
:101020007B6803F00F03FB60FB68013B062B00F2BB
:10103000348101A252F823F0551000004111000044
:10104000411100009B1200009B12000009120000D9
:1010500033120000FB78023B072B00F2228101A231
:1010600052F823F0851000008F1000009910000046
:10107000E3100000A3120000A3120000A31200005E
:10108000A31200000423FB610023FB7639E0032355
:10109000FB610123FB7634E00223FB610223FB7634
:1010A000FFF78EFA03465C1CFFF78AFA03462046D8
:1010B0001946FFF7C1FA00F053FF02467C4B9A42F3
:1010C00006D97C4B7B4A126842F060021A6018E035
:1010D000784B784A126822F0600242F020021A60CF
:1010E0000FE00123FB610323FB76FFF769FA034658
:1010F0005C1CFFF765FA034620461946FFF79CFA89
:1011000000BFFB7E18460121012200F0F7F8FFF72F
:101110009BFB684BFA695A626748FFF7D9FD0446A2
:10112000FFF74EFA034620461946FFF785FA00F00E
:1011300045F900F071FEB860B868FFF729FBADE033
:10114000FB78013B082B00F2AE8001A252F823F09D
:10115000751100007B1100008B110000A712000028
:10116000A71200009B110000A7120000A7120000A8
:10117000BF11000000237B6126E000200121012235
:1011800000F0BCF802237B611EE001200121012256
:1011900000F0B4F801237B6116E000F03DFEB8607A
:1011A000FFF70EFA0346B8681946FFF745FA4348B9
:1011B00004210122FFF7A0F903237B6104E000234F
:1011C0007B6101233B6100BFFB68022B0DD1394AD3
:1011D000384B9B6A23F4803323F003037969194366
:1011E0003B691B040B43936258E0324A314B9B6AC4
:1011F00023F4801323F00C037969890019433B69B8
:101200001B050B43936249E0FB78072B02D0082BA8
:1012100007D049E0274B274A126822F080521A6013
:1012200006E0244B234A126842F080521A6000BF45
:1012300034E0FB78032B14D0082B22D0022B00D0F3
:1012400032E000200121012200F058F8194B402221
:101250005A6200BF174BDB6A03F48033002BF9D0CE
:101260001AE001200121012200F048F8114B602210
:101270005A6200BF0F4BDB6A03F40033002BF9D036
:101280000AE00C4B20225A6200BF0A4BDB6A03F4CF
:101290000043002BF9D000BF00E000BFFFF7EAF9E0
:1012A00002E000BF00E000BF2437BD4690BD00BF94
:1012B0000048E80100800C400043020040800C40E0
:1012C00080B483B000AF78600B4B9B6D03F00803D4
:1012D000002B00D00BE07B6803F007037B60064B1C
:1012E000054AD26F22F007017A680A43DA670C37A1
:1012F000BD465DF8047B704700800C4080B586B029
:1013000000AF13460246FA710A46BA717B71FB7947
:10131000042B4AD801A252F823F000BF6913000041
:101320005B1300003F130000311300004D13000059
:1013300001233B610223FB6001237B611DE0042349
:101340003B610823FB6003237B6116E010233B61B4
:101350002023FB6005237B610FE040233B6180235A
:10136000FB6007237B6108E04FF480733B614FF41F
:101370000073FB6009237B6100BFBB79002B0ED09B
:101380000C4B3A691A627B79002B0BD000BF0A48DC
:101390007969FFF7C7F80346002BF8D002E0054B48
:1013A000FA681A6200F00AF800E000BF1837BD467C
:1013B00080BD00BF00800C402C800C4080B400AF8A
:1013C000034BDA6A034B1A60BD465DF8047B704735
:1013D00000800C409000002080B483B000AF034632
:1013E000FB71FB79002B06D0084B084A126842F0CB
:1013F00001021A6005E0054B044A126822F001025E
:101400001A600C37BD465DF8047B704700A00840A9
:1014100080B487B000AFF860B9607A60FB6803F110
:101420000473DA00BB6813449B007B617B697A68B4
:101430001A601C37BD465DF8047B704780B584B0E8
:1014400000AF7860184B5B68FB600020FFF7C4FFBB
:10145000FB6823F4830323F01F03FB607B685B6856
:10146000FA681343FB607B681B7AFA681343FB60DE
:101470007B685B7AFA681343FB607B68DB68FA6819
:101480001343FB607B681B8AFA681343FB60064BBF
:10149000FA685A607B681B78002B02D00120FFF7A6
:1014A0009BFF1037BD4680BD00A0084080B485B0CA
:1014B00000AF78600D4B5B68FB60FB6823F4803302
:1014C000FB607B68002B08D0B3F5803F00D005E0BF
:1014D000FB6843F48033FB6000E000BF034BFA6815
:1014E0005A601437BD465DF8047B704700A0084081
:1014F00080B483B000AF02460B46FA807B717B79E3
:10150000002B06D0094B094A9168FA880A439A6071
:1015100006E0064B054A9168FA88D2430A409A6071
:101520000C37BD465DF8047B704700BF00A0084043
:1015300080B584B000AFF860B9601346FB71FB68FA
:10154000072B00F2C38001A252F823F06D150000B2
:1015500099150000C5150000F11500001D160000CA
:101560004916000075160000A1160000BB681F2B6D
:1015700007DCBA68FB79574811461A46FFF748FF5F
:10158000A5E0BB68203BBB60BA68FB7952481146B6
:101590001A46FFF73DFF9AE0BB681F2B07DCBA68CD
:1015A000FB794E4811461A46FFF732FF8FE0BB68C1
:1015B000203BBB60BA68FB79494811461A46FFF7E1
:1015C00027FF84E0BB681F2B07DCBA68FB7945481E
:1015D00011461A46FFF71CFF79E0BB68203BBB6051
:1015E000BA68FB79404811461A46FFF711FF6EE0D2
:1015F000BB681F2B07DCBA68FB793C4811461A46CA
:10160000FFF706FF63E0BB68203BBB60BA68FB796D
:10161000374811461A46FFF7FBFE58E0BB681F2B00
:1016200007DCBA68FB79334811461A46FFF7F0FE2B
:101630004DE0BB68203BBB60BA68FB792E48114681
:101640001A46FFF7E5FE42E0BB681F2B07DCBA68CD
:10165000FB792A4811461A46FFF7DAFE37E0BB68E5
:10166000203BBB60BA68FB79254811461A46FFF754
:10167000CFFE2CE0BB681F2B07DCBA68FB79214842
:1016800011461A46FFF7C4FE21E0BB68203BBB6051
:10169000BA68FB791C4811461A46FFF7B9FE16E0F6
:1016A000BB681F2B07DCBA68FB79184811461A463D
:1016B000FFF7AEFE0BE0BB68203BBB60BA68FB796E
:1016C000134811461A46FFF7A3FE00E000BF10378B
:1016D000BD4680BD40A0084050A0084044A008403E
:1016E00054A0084048A0084058A008404CA008401A
:1016F0005CA00840CCA00840B4A00840D0A008409E
:10170000B8A00840D4A00840BCA00840D8A0084019
:10171000C0A0084080B487B000AFF860B9607A60BC
:10172000FB68072B00F2AC8001A252F823F000BF47
:10173000511700007517000099170000BD17000031
:10174000E1170000091800003118000059180000C6
:101750004E4B1B6C7B61BB68DB437A6913407B613A
:10176000BA687B6813407A6913437B61474B7A6997
:101770001A6486E0454B5B6C7B61BB68DB437A692E
:1017800013407B61BA687B6813407A6913437B61BD
:101790003E4B7A695A6474E03C4B9B6C7B61BB683E
:1017A000DB437A6913407B61BA687B6813407A69CE
:1017B00013437B61354B7A699A6462E0334BDB6C8F
:1017C0007B61BB68DB437A6913407B61BA687B68E5
:1017D00013407A6913437B612C4B7A69DA6450E0D9
:1017E0002A4BD3F8CC307B61BB68DB437A6913406A
:1017F0007B61BA687B6813407A6913437B61234B32
:101800007A69C3F8CC203CE0204BD3F8D0307B6120
:10181000BB68DB437A6913407B61BA687B6813401D
:101820007A6913437B61194B7A69C3F8D02028E0A9
:10183000164BD3F8D4307B61BB68DB437A69134025
:101840007B61BA687B6813407A6913437B610F4BF5
:101850007A69C3F8D42014E00C4BD3F8D8307B61FC
:10186000BB68DB437A6913407B61BA687B681340CD
:101870007A6913437B61054B7A69C3F8D82000E08D
:1018800000BF1C37BD465DF8047B704700A00840D0
:1018900080B487B000AFF860B9607A60FB68072B4E
:1018A00000F2AC8001A252F823F000BFCD18000076
:1018B000F118000015190000391900005D19000029
:1018C00085190000AD190000D51900004E4B1B6DA5
:1018D0007B61BB68DB437A6913407B61BA687B68D4
:1018E00013407A6913437B61474B7A691A6586E036
:1018F000454B5B6D7B61BB68DB437A6913407B6161
:10190000BA687B6813407A6913437B613E4B7A69FE
:101910005A6574E03C4B9B6D7B61BB68DB437A6925
:1019200013407B61BA687B6813407A6913437B611B
:10193000354B7A699A6562E0334BDB6D7B61BB683E
:10194000DB437A6913407B61BA687B6813407A692C
:1019500013437B612C4B7A69DA6550E02A4BD3F84C
:10196000B4307B61BB68DB437A6913407B61BA6842
:101970007B6813407A6913437B61234B7A69C3F810
:10198000B4203CE0204BD3F8B8307B61BB68DB432C
:101990007A6913407B61BA687B6813407A691343A4
:1019A0007B61194B7A69C3F8B82028E0164BD3F84D
:1019B000BC307B61BB68DB437A6913407B61BA68EA
:1019C0007B6813407A6913437B610F4B7A69C3F8D4
:1019D000BC2014E00C4BD3F8C0307B61BB68DB4308
:1019E0007A6913407B61BA687B6813407A69134354
:1019F0007B61054B7A69C3F8C02000E000BF1C374B
:101A0000BD465DF8047B704700A0084080B483B0F9
:101A100000AF7860064B064A526822F4E0117A68FB
:101A20000A435A600C37BD465DF8047B704700BF1F
:101A300000A0084080B485B000AF7860194B5B69A6
:101A4000DBB203F00F03DBB29B00FB73154B1B698A
:101A500003F0C0039B09DAB2FB7B1343FB737B6883
:101A6000FA7B9A700F4B1B69DBB203F03F03DAB2CB
:101A70007B685A700B4B9B69DBB223F00F03FB733F
:101A8000084BDB6903F0F0031B09DAB2FB7B13435D
:101A9000FB737B68FA7B1A701437BD465DF8047BD4
:101AA000704700BFD0FF0FE080B483B000AF0346A3
:101AB000FB71FB79002B03D0054B01221A6602E073
:101AC000034B00221A660C37BD465DF8047B704755
:101AD00000A0084080B483B000AF786000BF054B21
:101AE0005A6E7B681340002BF9D10C37BD465DF868
:101AF000047B704700A0084080B483B000AF7860DA
:101B0000054B054A916A7A68D2430A409A620C37BB
:101B1000BD465DF8047B704700A0084080B500AF6B
:101B2000002028490022FFF7F5FD01202549002269
:101B3000FFF7F0FD022023490022FFF7EBFD032011
:101B400020490022FFF7E6FD04201E490022FFF78E
:101B5000E1FD05201B490022FFF7DCFD06201949A5
:101B60000022FFF7D7FD072016490022FFF7D2FD1C
:101B70000020FF210022FFF78BFE0120FF21002221
:101B8000FFF786FE0220FF210022FFF781FE0320DF
:101B9000FF210022FFF77CFE0420FF210022FFF737
:101BA00077FE0520FF210022FFF772FE0620FF21AD
:101BB0000022FFF76DFE0720FF210022FFF768FEDD
:101BC00080BD00BF00F00FF080B500AF07202649B0
:101BD0000022FFF79FFD062024490022FFF79AFD0F
:101BE000052022490022FFF795FD04201F4900220D
:101BF000FFF790FD03201D490022FFF78BFD022017
:101C00001A490022FFF786FD012018490022FFF73C
:101C100081FD00204FF020410022FFF77BFD0720CF
:101C200007210022FFF734FE062007210022FFF7DC
:101C30002FFE052007210022FFF72AFE042007219E
:101C40000022FFF725FE032007210022FFF720FED8
:101C5000022007210022FFF71BFE0120072100229E
:101C6000FFF716FE00BF80BD00E00F5000E00FF050
:101C700080B582B000AF0346FB7125480121FEF715
:101C8000BBFF24480321FFF7BFF923484021FEF79B
:101C90009BFE0120FFF714FB20480121FEF7ACFF5B
:101CA0004FF0FF30FFF728FF1D48FFF7C7FB082064
:101CB0000121FFF71DFC10200121FFF719FC8020F6
:101CC0000121FFF715FC4FF480700121FFF710FC94
:101CD0004FF400700121FFF70BFCFB79002B0DD0B6
:101CE0004FF44020FFF792FE4FF48030FFF7DEFB09
:101CF0000C4B0C4AD26F42F00802DA67FFF70EFF76
:101D00004FF0FF30FFF7E6FE0837BD4680BD00BF4D
:101D10000043020002001800600024000036260084
:101D20009022000000800C4080B586B000AF786043
:101D30004FF0FF30FFF7CEFE0120FFF7B5FEFFF7B3
:101D400043FF0023BB7536E00023FB752DE0BA7D11
:101D5000F97D1D481346DB009B1A9B0003440B448E
:101D600008339B793B61BA7DF87D17491346DB0048
:101D70009B1A9B0003440B441B78FB60BB7D5B00FC
:101D80007A6813441B881A46FB7D42FA03F303F07A
:101D90000103002B06D0FA683B6910461946012260
:101DA000FFF7C6FBFB7D0133FB75FB7D0D2BCED909
:101DB000BB7D0133BB75BB7D062BC5D90020FFF76A
:101DC00073FE1837BD4680BD90200000064880474E
:101DD0000649074A074B9A42BEBF51F8040B42F826
:101DE000040BF8E7FEF7A4F9A51F0000B8220000D5
:101DF0000000002074000020FEE700BF80B400AFA8
:101E0000044BDB6C1B0EDBB21846BD465DF8047B51
:101E1000704700BFB081E00F80B582B000AF00F026
:101E20001FF87860074B5B6803F00F037A6822FAAB
:101E300003F37B60044B7A681A607B6818460837A6
:101E4000BD4680BD00800C409400002080B400AFEF
:101E5000024B1846BD465DF8047B7047006CDC02FF
:101E600080B582B000AF334BDB6A03F47053B3F537
:101E7000805F0AD0B3F5005F03D0B3F5006F08D0E0
:101E80000BE02D4B1B687B6047E04FF400437B6009
:101E900043E02A4B1B687B603FE0264BDB6803F482
:101EA000E063B3F5007F1BD0B3F5007F05D8002BAE
:101EB00024D0B3F5807F16D02BE0B3F5806F09D026
:101EC000B3F5A06F03D0B3F5407F06D021E01C4BE3
:101ED0007B6021E01B4B7B601EE01B4B7B601BE0AB
:101EE0001A4B7B6018E0FFF789FF0346122B02D9DB
:101EF000174B7B6010E0174B7B600DE0FFF77EFF18
:101F00000346122B02D9144B7B6005E0134B7B6018
:101F100002E000237B6000BF00BF064B1B6803F498
:101F2000E0339B0B01337A68B2FBF3F318460837B2
:101F3000BD4680BD00800C40040000200000002051
:101F4000003FAB01406F4001809FD500C0D8A70083
:101F500040B56400C0CF6A00804F120040420F00BD
:101F600080B400AF034B1B681846BD465DF8047B88
:101F7000704700BF0000002080B582B000AF7860DD
:101F8000064B7A681A60064BDB6A03F40063002B89
:101F900001D0FFF741FF0837BD4680BD000000209B
:101FA00000800C4080B400AFBD465DF8047B7047F4
:101FB00080B400AF4FF400431846BD465DF8047B83
:101FC000704700BF80B400AF4FF47A731846BD4627
:101FD0005DF8047B704700BF80B400AF034B1B6803
:101FE0001846BD465DF8047B704700BF0400002022
:101FF00008B5074B044613B10021AFF30080054B31
:102000001868836A03B19847204600F033F800BF90
:1020100000000000A822000070B50E4B0E4D0024F9
:10202000ED1AAD101E46AC4204D056F8242090475D
:102030000134F8E700F020F8084D094B0024ED1AB0
:10204000AD101E46AC4204D056F82420904701340F
:10205000F8E770BD68000020680000206C000020D8
:102060006800002002440346934202D003F8011B9B
:10207000FAE77047FEE700BFF8B500BFF8BC08BC40
:102080009E467047F8B500BFF8BC08BC9E46704736
:1020900001010507070304020302040605060D0EED
:1020A0000E0E0D0D0D0D0E0E0E0E0D0D0101050780
:1020B000070304020302040605060F1010100F0F99
:1020C0000F0F101010100F0F010105070703040276
:1020D0000302040605061112121211111111121237
:1020E000121211110101050707030402030204067D
:1020F0000506131C1C1C131313131C1C1C1C13138C
:1021000000010507060203010302040604051D1E63
:102110001E1E1D1D1D1D1E1E1E1E1D1D0001050750
:10212000060203010302040604051F2020201F1FCE
:102130001F1F202020201F1F010105070703040285
:102140000302040605062122222221212121222226
:10215000222221210705020103060423232323232E
:102160002323070502010306042424242424242411
:102170000705020103060425252525252525070534
:10218000020103060426262626262626000107022B
:102190000627272727270000000000000000131251
:1021A00011100F0E0D0C0000000021252426010146
:1021B0000304040203020D0E0D0D0E0D0E0E01019F
:1021C0000304040203020F100F0F100F101001017F
:1021D000030404020302111211111211121201015F
:1021E000030404020302131C13131C131C1C000120
:1021F0000203040103021D1E1D1D1E1D1E1E0001E3
:102200000203040103021F201F1F201F20200101C1
:102210000304040203022122212122212222050794
:102220000704040605060E0E0D0D0E0E0D0D050716
:1022300007040406050610100F0F10100F0F0507F6
:1022400007040406050612121111121211110507D6
:102250000704040605061C1C13131C1C1313050796
:102260000603040604051E1E1D1D1E1E1D1D05075A
:1022700006030406040520201F1F20201F1F05073A
:102280000704040605062222212122222121000022
:1022900001000000030040000C00000000000000EE
:1022A00000000000430000000800002000000000C3
:0822B00080DEFF7F0100000049
:1022B800006CDC020080000000000000000000004C
:1022C8000000000000000000000000000000000006
:1022D8000000000000000000A42200000000000030
:1022E80000000000000000000000000000000000E6
:1022F80000000000000000000000000000000000D6
:1023080000000000000000000000000000000000C5
:10231800000000000000000001010000DD000000D6
:0423280000000000B1
:0400000300001DCD0F
:00000001FF
