S01A0000646973706C61795365676D656E744669656C642E7333372D
S113000000000220AD010000D9010000D901000068
S1130010D9010000D9010000D9010000D901000074
S1130020D9010000D9010000D9010000D901000064
S1130030D9010000D9010000D9010000D901000054
S1130040D9010000D9010000D9010000D901000044
S1130050D9010000D9010000D9010000D901000034
S1130060D9010000D9010000D9010000D901000024
S1130070D9010000D9010000D9010000D901000014
S1130080D9010000D9010000D9010000D901000004
S1130090D9010000D9010000D9010000D9010000F4
S11300A0D9010000D9010000D9010000D9010000E4
S11300B0D9010000D9010000D9010000D9010000D4
S11300C0D9010000D9010000D9010000D9010000C4
S11300D0D9010000D9010000D901000010B5054C78
S11300E0237833B9044B13B10448AFF300800123E0
S11300F0237010BD780000200000000030260000AE
S1130100084B10B51BB108480849AFF300800848F4
S1130110036803B910BD074B002BFBD0BDE81040AA
S1130120184700BF00000000302600007C000020BB
S11301307400002000000000154B002B08BF134B77
S11301409D46A3F5803A00218B460F461348144A76
S1130150121A02F081F80F4B002B00D098470E4B77
S1130160002B00D098470020002104000D000D480A
S1130170002802D00C48AFF3008002F047F82000BA
S1130180290001F0F3FE02F02DF800BF0000080082
S113019000000220000000000000000078000020A1
S11301A09400002000000000000000000648804782
S11301B00649074A074B9A42BEBF51F8040B42F85E
S11301C0040BF8E7FFF7B8FF850300003C260000A6
S11301D00000002078000020FEE700BF80B400AFDC
S11301E0044BDB6C1B0EDBB21846BD465DF8047B8A
S11301F0704700BFB081E00F80B582B000AF00F05F
S11302001FF87860074B5B6803F00F031A467B689E
S1130210D3407B60044A7B6813607B6818460837C8
S1130220BD4680BD00800C400800002080B400AFB3
S1130230024B1846BD465DF8047B7047006CDC0237
S113024080B582B000AF334BDB6A03F47053B3F56F
S1130250805F0AD0B3F5005F03D0B3F5006F08D018
S11302600BE02D4B1B687B6047E04FF400437B6041
S113027043E02A4B1B687B603FE0264BDB6803F4BA
S1130280E063B3F5007F1BD0B3F5007F05D8002BE6
S113029024D0B3F5807F16D02BE0B3F5806F09D05E
S11302A0B3F5A06F03D0B3F5407F06D021E01C4B1B
S11302B07B6021E01B4B7B601EE01B4B7B601BE0E3
S11302C01A4B7B6018E0FFF789FF0346122B02D913
S11302D0174B7B6010E0174B7B600DE0FFF77EFF50
S11302E00346122B02D9144B7B6005E0134B7B6051
S11302F002E000237B6000BF00BF064B1B6803F4D1
S1130300E0339B0B01337A68B2FBF3F318460837EA
S1130310BD4680BD00800C40040000200000002089
S1130320003FAB01406F4001809FD500C0D8A700BB
S113033040B56400C0CF6A00804F120040420F00F5
S113034080B400AF034B1B681846BD465DF8047BC0
S1130350704700BF0000002080B582B000AF786015
S1130360064A7B681360064BDB6A03F40063002BC8
S113037001D0FFF741FF0837BD4680BD00000020D3
S113038000800C4080B400AFBD465DF8047B70472C
S113039080B400AF4FF400431846BD465DF8047BBB
S11303A0704700BF80B400AF4FF47A731846BD465F
S11303B05DF8047B704700BF80B400AF034B1B683B
S11303C01846BD465DF8047B704700BF040000205A
S11303D080B483B000AF0346FB71FB79002B03D0DC
S11303E0054B01221A6602E0034B00221A660C3701
S11303F0BD465DF8047B704700A0084080B483B01C
S113040000AF786000BF054B5A6E7B681340002B29
S1130410F9D10C37BD465DF8047B704700A0084055
S113042080B483B000AF78600549054B9A6A7B6855
S1130430DB4313408B620C37BD465DF8047B704789
S113044000A0084080B500AF00202849002201F038
S11304502DFB01202549002201F028FB022023491D
S1130460002201F023FB03202049002201F01EFB9F
S113047004201E49002201F019FB05201B4900221B
S113048001F014FB06201949002201F00FFB07209C
S11304901649002201F00AFB0020FF21002201F08E
S11304A0D1FB0120FF21002201F0CCFB0220FF211F
S11304B0002201F0C7FB0320FF21002201F0C2FB50
S11304C00420FF21002201F0BDFB0520FF210022B2
S11304D001F0B8FB0620FF21002201F0B3FB072046
S11304E0FF21002201F0AEFB80BD00BF00F00FF041
S11304F080B500AF07202649002201F0D7FA062074
S11305002449002201F0D2FA05202249002201F0F8
S1130510CDFA04201F49002201F0C8FA03201D4926
S1130520002201F0C3FA02201A49002201F0BEFAA7
S113053001201849002201F0B9FA00204FF02041AF
S1130540002201F0B3FA07200721002201F07AFB10
S113055006200721002201F075FB05200721002257
S113056001F070FB04200721002201F06BFB032043
S11305700721002201F066FB02200721002201F07E
S113058061FB01200721002201F05CFB00BF80BD5C
S113059000E00F5000E00FF080B582B000AF0346DA
S11305A0FB712548012100F0B5FC2448032100F02B
S11305B0C5FE2348402100F04BFB012001F02AF83E
S11305C02048012100F0A6FC4FF0FF30FFF728FF80
S11305D01D4801F0DBF80820012101F03DF910204D
S11305E0012101F039F98020012101F035F94FF49E
S11305F08070012101F030F94FF40070012101F005
S11306002BF9FB79002B0DD04FF4402001F0E0FBD7
S11306104FF4803001F0FEF80C4A0C4BDB6F43F0D2
S11306200803D367FFF70EFF4FF0FF30FFF7E6FE36
S11306300837BD4680BD00BF0043020002001A0017
S113064060002600003628008424000000800C404E
S113065080B586B000AF78604FF0FF30FFF7CEFE74
S11306600120FFF7B5FEFFF743FF0023BB7536E01B
S11306700023FB752DE0BA7DF97D1D481346DB0090
S11306809B1A9B0003440B4408339B793B61BA7D5E
S1130690F97D17481346DB009B1A9B000B44034467
S11306A01B78FB60BB7D5B007A6813441B881A4689
S11306B0FB7D42FA03F303F00103002B06D0FA6832
S11306C03B6910461946012201F0E6F8FB7D01332F
S11306D0FB75FB7D0D2BCED9BB7D0133BB75BB7D7B
S11306E0062BC5D90020FFF773FE1837BD4680BD21
S11306F08422000080B483B000AF78603960FEE7E4
S113070080B487B000AFF860B9607A60FB6803F129
S11307100473DA00BB6813449B007B617B697A68CD
S11307201A601C37BD465DF8047B704780B485B001
S113073000AF786039607B6803F10473DA003B68CA
S113074013449B00FB60FB681B6818461437BD46C6
S11307505DF8047B704700BF80B584B000AF78605B
S11307607B68002B03D07B68B3F5004F04D908489D
S113077040F29661FFF7BEFF7B68B3FA83F3C3F1DF
S11307801F03FB60FB6818461037BD4680BD00BFE1
S11307909824000080B400AF044BDB6C1B0EDBB26A
S11307A01846BD465DF8047B704700BFB081E00F7A
S11307B080B400AF054BDB6C03F47F031B0CDBB28E
S11307C01846BD465DF8047B704700BFB081E00F5A
S11307D080B582B000AFFFF7EBFF03464A2B04D08D
S11307E0792B02D0482B21D022E0164B1B699BB2F7
S11307F003F03F039BB21B02FB80124B9B6903F087
S1130800F0039AB2FB881343FB800E4BDB6903F0C1
S1130810F0031B099AB2FB881343FB80FB88B3F5F2
S1130820017F01D3084B09E0084B07E0074B05E0C3
S113083007484FF48771FFF75DFF00231846083718
S1130840BD4680BDD0FF0FE000366E010048E801D0
S1130850FC24000080B584B000AF78600123FB6005
S1130860FFF7B6FF02467B689A4204D30023FB607D
S11308700023BB600BE0FFF7ABFF03465A007B6825
S11308809A4202D30123BB6001E00223BB60084803
S11308901E21FA68FFF734FF0549054B5B6823F412
S11308A08072BB681B0213434B601037BD4680BD8A
S11308B000800C4080B582B000AF05481E21FFF7D0
S11308C035FF78607B6818460837BD4680BD00BF99
S11308D000800C4080B582B000AF244B5B6903F408
S11308E0E063B3F5007F1CD0B3F5007F05D8002B7F
S11308F025D0B3F5807F1FD02AE0B3F5C06F24D094
S1130900B3F5E06F1ED0B3F5407F21D1FFF742FF6E
S11309100346122B02D9164B7B6021E0154B7B60FA
S11309201EE0FFF737FF0346122B02D9124B7B6000
S113093016E0124B7B6013E0114B7B6010E0114B0F
S11309407B600DE0104B7B600AE0104B7B6007E09E
S11309500F484FF4C671FFF7CDFE00237B6000BF44
S11309607B6818460837BD4680BD00BF00800C4038
S1130970804F120040420F0040B56400C0CF6A00AF
S1130980C0D8A700809FD500406F4001003FAB0155
S1130990FC24000080B582B000AF0F4800F01AFCC0
S11309A00346FB70FB78072B05D0092B07D1FFF713
S11309B047FC78600BE0FFF78DFF786007E007489D
S11309C04FF4E371FFF796FE00237B6000BF7B6862
S11309D018460837BD4680BD06000C00FC24000004
S11309E080B485B000AF78603960284BDB6B002B96
S11309F014BF01230023BB72244B41F67132DA6326
S1130A00224B5B6803F00703FB60FB68012B01D9F1
S1130A10042B02D10023FB7202E00123FB7200BF0E
S1130A207B681B4A934207D9FB7A002B01D005232C
S1130A3000E00423FB6016E07B68154A93420BD860
S1130A407B68144A934207D9FB7A002B01D0032315
S1130A5000E00123FB6006E0FB7A002B01D00223B7
S1130A6000E00023FB600949084B5B6823F00702A0
S1130A70FB6813434B60BB7A002B02D0034B00226C
S1130A80DA631437BD465DF8047B704700000C4000
S1130A900048E8010024F40080B500AFFFF7C6FB6E
S1130AA0034618460021FFF79BFF80BD80B582B046
S1130AB000AF7860396078683968FFF791FF0837CC
S1130AC0BD4680BD90B585B000AF78600023BB60A3
S1130AD07B683B4A934208D03A4A934205D03A484D
S1130AE040F2B531FFF706FE00E000BF786800F081
S1130AF071FB0346FB607B68314A934203D0314A61
S1130B00934206D00CE0314B9B6A03F00303FB6075
S1130B100CE02E4B9B6A03F00C039B08FB6005E082
S1130B2029484FF47971FFF7E5FD00BFFB68032BFB
S1130B3039D801A252F823F06F0B0000490B0000D2
S1130B40510B0000590B0000FFF722FCB86032E0A3
S1130B50FFF732FCB8602EE0FFF74EFB0446FFF7C8
S1130B60A9FE0346013324FA03F3BB6023E0002308
S1130B70BB607B68124A934203D07B68114A93425C
S1130B8010D1124B9A6A7B680D498B4201D1102314
S1130B9000E0142322FA03F3002B03D0FFF702FC36
S1130BA0B86008E007E0084840F20E41FFF7A2FDF4
S1130BB00023BB6000BFBB6818461437BD4690BD18
S1130BC002001A0003001C00FC24000000800C40FA
S1130BD080B483B000AF7860094B5B6D03F0010310
S1130BE0002B00D006E000BF054B1A6D7B68134054
S1130BF0002BF9D10C37BD465DF8047B704700BF6C
S1130C0000800C4080B582B000AF104800F0E2FADA
S1130C100346FB70FB78032B07D0092B09D0022B6A
S1130C200BD1FFF7C9FB78600AE0FFF7B1FB7860EE
S1130C3006E0FFF705FB786002E000237B6000BF5D
S1130C407B6818460837BD4680BD00BF07232200D5
S1130C50B0B584B000AF786039607B681B0903F0DD
S1130C600F03FB60FB68013B062B00F23A8101A2F3
S1130C7052F823F0910C0000E30E0000E30E000094
S1130C80CF0C0000010D0000570D0000630E0000A2
S1130C903B68002B02D03B68082B04D9954840F2EE
S1130CA0BD61FFF727FDFFF7F7FE9349924B1B68E1
S1130CB023F4E0323B68013B9B0313430B60FFF7D3
S1130CC09BFAB860B8680021FFF7F0FE0FE13B68BB
S1130CD0002B03D03B68B3F5007F04D985484FF45B
S1130CE0DA61FFF707FD3868FFF736FD386082499F
S1130CF0814B9B6823F00F023B6813438B60F6E043
S1130D003B68002B03D03B68B3F5007F04D97948D6
S1130D104FF4DB61FFF7EEFCFFF7BEFEFFF790FA3E
S1130D2002463B68B2FBF3F31846FFF793FD3868BD
S1130D30FFF712FD386070496F4B5B6823F00F02B8
S1130D403B6813434B60FFF757FAB860B86800215B
S1130D50FFF7ACFECBE07B68684A934227D0674A32
S1130D60934203D8664A934207D073E0654A93429C
S1130D7037D0654A934255D06CE03B68B3F5004FD9
S1130D8004D95C4840F2F361FFF7B4FC0420FFF798
S1130D901FFF3868FFF7E0FC38605749564B9B6EDD
S1130DA023F0F0023B681B0113438B6658E03B6859
S1130DB0B3F5004F04D94F4840F20171FFF79AFC94
S1130DC00420FFF705FF3868FFF7C6FC38604A497E
S1130DD0494B9B6E23F470623B681B0213438B6682
S1130DE03EE03B680F2B02D93B68802B04D9414875
S1130DF04FF4E261FFF77EFC0420FFF7E9FE386858
S1130E00FFF7AAFC38603C4D3B4B9B6E23F44054E7
S1130E101020FFF7A1FC02463B689B1A1B032343E7
S1130E20AB661DE03B68082B04D932484FF4E461FB
S1130E30FFF760FC0420FFF7CBFE3868FFF78CFC5B
S1130E4038602D492C4B9B6E23F003023B681343FF
S1130E508B6605E0274840F22E71FFF74BFC00BF7C
S1130E6045E07B68294A934203D0294A934218D02B
S1130E7030E03B68082B04D91E4840F23771FFF775
S1130E8039FC4020FFF7A4FE3868FFF765FC3860A2
S1130E901949194B1B6F23F003023B6813430B677B
S1130EA01EE03B68082B04D9124840F24671FFF754
S1130EB021FC4020FFF78CFE3868FFF74DFC3860BA
S1130EC00D490D4B1B6F23F030023B681B0113438C
S1130ED00B6705E0074840F25471FFF70BFC00BFB5
S1130EE005E0044840F25A71FFF704FC00BF1037D4
S1130EF0BD46B0BDFC24000000800C4060261400F8
S1130F00601610006000260060062A0070071600B4
S1130F107017180080B586B000AF78600B46FB7080
S1130F2000233B617B681B0A03F00F03013B092B81
S1130F3033D801A252F823F0750F00007B0F000094
S1130F40610F00009B0F00009B0F0000810F000049
S1130F508B0F00009B0F00009B0F0000950F0000FB
S1130F601B4B7B611B4800F043F803461846FFF710
S1130F7071FC18E0184B7B6115E0184B7B6112E0A3
S1130F80174B7B6101233B610DE0164B7B61102302
S1130F903B6108E0144B7B6105E014484FF4FB61AE
S1130FA0FFF7A8FB10E07B681B0B03F01F03FB603B
S1130FB03B69002B02D03869FFF70AFEFB78786999
S1130FC0F9681A46FFF79CFB1837BD4680BD00BF81
S1130FD040800C400043020008800C4044800C40D8
S1130FE058800C4060800C4078800C40FC24000049
S1130FF090B585B000AF78607B6803F47813B3F5DF
S1131000B01F00F0AB80B3F5B01F1AD8B3F5402F72
S113101000F0BF80B3F5402F08D8B3F5003F3CD0B3
S1131020B3F5802F2DD0002B27D0BEE0B3F5801F61
S11310303CD0B3F5A01F47D0B3F5602F00F0AD80CE
S1131040B3E0B3F5081F00F0AC80B3F5081F0AD86D
S1131050B3F5D01F25D0B3F5E01F7AD0B3F5C01F88
S113106000F08980A1E0B3F5201F4ED0B3F5281F0E
S113107062D0B3F5181F35D097E0FFF7E1F8F860B8
S11310809BE0FFF7DDF8F8604E4B9B6803F00F031D
S11310901A46FB68D340FB608FE0FFF7ADF8F860B9
S11310A08BE04948FFF70EFDF86086E04648FFF7FD
S11310B009FDF860434B9B6E03F0F0031B091A46CD
S11310C0FB68D340FB6078E03F48FFF7FBFCF86027
S11310D03C4B9B6E03F470631B0A1A46FB68D340B7
S11310E0FB606AE03848FFF7EDFCF860354B9B6E17
S11310F003F440531C0B1020FFF72EFB034623443C
S11311001A46FB68D340FB6057E02F48FFF7DAFC30
S1131110F8602C4B9B6E03F440531B0B1A46FB6880
S1131120D340FB60274BDB6F03F007030133FA68FE
S1131130B2FBF3F3FB6040E02348FFF7C3FCF86025
S1131140204B9B6E03F003031A46FB68D340FB60FD
S113115033E01E48FFF7B6FCF8602EE01B48FFF7AB
S1131160B1FCF860174B1B6F03F003031A46FB68CE
S1131170D340FB6021E01548FFF7A4FCF860114B55
S11311801B6F03F030031B091A46FB68D340FB6056
S113119013E0FFF7FFFBF8600FE0FFF79BFBF8603D
S11311A00BE0FFF72FFDF86007E0094840F6CC019B
S11311B0FFF7A0FA0023FB6000BFFB681846143752
S11311C0BD4690BD00800C4002001A0003001C00C4
S11311D0FC24000080B584B000AF78600123FB7369
S11311E07B6803F00F03BB60BB68013B062B00F276
S11311F0938001A252F823F0151200004B12000054
S1131200871200001913000019130000C312000014
S1131210E5120000474BDB6A03F47053B3F5805FBB
S113122009D0B3F5005F03D0B3F5006F06D008E032
S11312300223FB7308E00323FB7305E00423FB7321
S113124002E00523FB7300BF6EE03A4B9B6A03F098
S11312500303022B06D0032B07D0012B08D1032351
S1131260FB730FE00223FB730CE00623FB7309E01E
S1131270304B9B6A03F48033002B02D00A23FB73A8
S113128000E000BF50E02B4B9B6A03F00C03082BDB
S113129006D00C2B07D0042B08D10323FB730FE0DB
S11312A00223FB730CE00623FB7309E0214B9B6ACA
S11312B003F48013002B02D00A23FB7300E000BF69
S11312C032E01C4B1B6803F08053002B03D0B3F1B6
S11312D0805F03D028E00723FB7302E00923FB733C
S11312E000BF21E0134BDB6A03F46033B3F5803FA6
S11312F008D0B3F5003F08D0B3F5004F08D1092357
S1131300FB7308E00223FB7305E00323FB7302E095
S11313100123FB7300BF07E007484FF44761FFF761
S1131320E9F90023FB7300BFFB7B18461037BD4669
S113133080BD00BF00800C40FC24000080B588B054
S113134000AF78600B46FB700323FB610323FB763D
S113135000233B617B6803F00F03FB60FB68013BE8
S1131360062B00F2438101A252F823F089130000F6
S11313707714000077140000ED150000ED1500004F
S1131380451500007B150000FB78023B082B52D862
S113139001A252F823F000BFBD130000C7130000E0
S11313A0D113000013140000371400003714000098
S11313B037140000371400002B1400000423FB61D1
S11313C00023FB763DE00323FB610123FB7638E039
S11313D00223FB610223FB76FFF7FAF9034601338C
S11313E01846FFF737FAFEF7ABFF0246844B9A42E2
S11313F006D9844A834B1B6843F06003136020E0E2
S1131400804A804B1B6823F0600343F02003136081
S113141017E00123FB610323FB76FFF7D9F90346A9
S113142001331846FFF716FA0BE0774840F61451DB
S1131430FFF760F9E0E0744840F61951FFF75AF9F4
S1131440DAE0FB7E18460121012200F009F9FFF7DA
S113145023FB6C4AFB6953626C48FFF7C9FD0346E2
S11314601846FFF7F7F9FEF7C7FEB860B868002121
S1131470FFF71CFBC0E0FB78013B092B3CD801A221
S113148052F823F0AD140000B3140000C31400009C
S1131490F9140000F9140000D3140000F91400003A
S11314A0F9140000F9140000EF14000000237B611C
S11314B028E000200121012200F0D2F802237B6100
S11314C020E001200121012200F0CAF801237B6100
S11314D018E0FEF791FEB860B868FFF7BBF94C4816
S11314E004210122FFF70CF903237B610AE00023A6
S11314F07B6101233B6105E0434840F6B851FFF7A7
S1131500F9F879E0FB68022B0DD13E493D4B9B6A0B
S113151023F4803323F003037A691A433B691B04E1
S113152013438B6268E03749364B9B6A23F480137C
S113153023F00C037A6992001A433B691B05134399
S11315408B6259E0FB78072B02D0092B07D00DE002
S11315502C4A2C4B1B6823F0805313600CE0294A5F
S1131560284B1B6843F08053136005E0264840F67F
S11315701361FFF7BFF83FE03EE0FB78032B13D085
S1131580092B21D0022B2AD100200121012200F0B5
S113159067F81C4B40225A6200BF1A4BDB6A03F403
S11315A08033002BF9D020E001200121012200F03A
S11315B057F8144B60225A6200BF124BDB6A03F4E3
S11315C00033002BF9D010E00E4B20225A6200BFEA
S11315D00C4BDB6A03F40043002BF9D005E00A4806
S11315E040F65261FFF786F806E005E0064840F64B
S11315F02771FFF77FF800BF2037BD4680BD00BFCD
S11316000048E80100800C40FC2400000043020074
S113161040800C4080B582B000AF78607B68802B3E
S113162004D90D4841F22321FFF764F80B4B9B6D5D
S113163003F00803002B00D00BE07B6803F00703E2
S11316407B600649054BDB6F23F007027B6813437D
S1131650CB670837BD4680BDFC24000000800C40E9
S113166080B586B000AF0346FB710B46BB711346D1
S11316707B71FB79042B32D801A252F823F000BF0E
S1131680CD160000BF160000A3160000951600003A
S1131690B116000001233B610223FB6001237B613F
S11316A023E004233B610823FB6003237B611CE0EC
S11316B010233B612023FB6005237B6115E040235D
S11316C03B618023FB6007237B610EE04FF4807352
S11316D03B614FF40073FB6009237B6105E00F4815
S11316E041F2CC21FFF706F814E0BB79002B0ED0B1
S11316F00B4A3B6913627B79002B0BD000BF09486E
S11317007969FFF713F80346002BF8D002E0044A86
S1131710FB6813621837BD4680BD00BFFC2400007F
S113172000800C402C800C4080B483B000AF034692
S1131730FB71FB79002B06D0084A084B1B6843F069
S11317400103136005E0054A044B1B6823F0010301
S113175013600C37BD465DF8047B704700A0084059
S113176080B487B000AFF860B9607A60FB6803F1B9
S11317700473DA00BB6813449B007B617B697A685D
S11317801A601C37BD465DF8047B704780B584B091
S113179000AF78601D4B5B68FB607B68002B03D156
S11317A01B484A21FEF7A6FF0020FFF7BDFFFB6898
S11317B023F4830323F01F03FB607B685B68FA68F0
S11317C01343FB607B681B7A1A46FB681343FB6078
S11317D07B685B7A1A46FB681343FB607B68DB68B3
S11317E0FA681343FB607B681B8A1A46FB68134341
S11317F0FB60064AFB6853607B681B78002B02D0B1
S11318000120FFF791FF1037BD4680BD00A00840BE
S11318106025000080B485B000AF78600D4B5B6834
S1131820FB60FB6823F48033FB607B68002B08D0EB
S1131830B3F5803F00D005E0FB6843F48033FB60E0
S113184000E000BF034AFB6853601437BD465DF8EF
S1131850047B704700A0084080B483B000AF034607
S11318600A46FB8013467B717B79002B06D009491D
S1131870084B9A68FB8813438B6006E00549054BC7
S11318809A68FB88DB4313408B600C37BD465DF8D8
S1131890047B704700A0084080B584B000AFF860B6
S11318A0B9601346FB71FB68072B04DD6E484FF4E7
S11318B08171FEF71FFFBB68272B04DD6A4840F2E5
S11318C00911FEF717FFFB68072B00F2C38001A282
S11318D052F823F0F5180000211900004D190000FA
S11318E079190000A5190000D1190000FD190000A4
S11318F0291A0000BB681F2B07DCBA68FB795B4818
S113190011461A46FFF72CFFAAE0BB68203BBB60D8
S1131910BA68FB79564811461A46FFF721FF9FE043
S1131920BB681F2B07DCBA68FB79524811461A467C
S1131930FFF716FF94E0BB68203BBB60BA68FB79F5
S11319404D4811461A46FFF70BFF89E0BB681F2B71
S113195007DCBA68FB79494811461A46FFF700FFCD
S11319607EE0BB68203BBB60BA68FB794448114603
S11319701A46FFF7F5FE73E0BB681F2B07DCBA6855
S1131980FB79404811461A46FFF7EAFE68E0BB6857
S1131990203BBB60BA68FB793B4811461A46FFF707
S11319A0DFFE5DE0BB681F2B07DCBA68FB793748B4
S11319B011461A46FFF7D4FE52E0BB68203BBB60D9
S11319C0BA68FB79324811461A46FFF7C9FE47E068
S11319D0BB681F2B07DCBA68FB792E4811461A46F0
S11319E0FFF7BEFE3CE0BB68203BBB60BA68FB79F6
S11319F0294811461A46FFF7B3FE31E0BB681F2B96
S1131A0007DCBA68FB79254811461A46FFF7A8FE99
S1131A1026E0BB68203BBB60BA68FB7920481146CE
S1131A201A46FFF79DFE1BE0BB681F2B07DCBA6854
S1131A30FB791C4811461A46FFF792FE10E0BB687A
S1131A40203BBB60BA68FB79174811461A46FFF77A
S1131A5087FE05E0044840F27311FEF74BFE00BF19
S1131A601037BD4680BD00BF6025000040A008407F
S1131A7050A0084044A0084054A0084048A0084092
S1131A8058A008404CA008405CA00840CCA00840E6
S1131A90B4A00840D0A00840B8A00840D4A0084092
S1131AA0BCA00840D8A00840C0A0084080B586B0BB
S1131AB000AFF860B9607A60FB68072B04DD5F480B
S1131AC04FF4C671FEF716FEFB68072B00F2AC80DC
S1131AD001A252F823F000BFF91A00001D1B0000F8
S1131AE0411B0000651B0000891B0000B11B0000A6
S1131AF0D91B0000011C0000514B1B6C7B61BB68AF
S1131B00DB437A6913407B61BA687B6813407A6966
S1131B1013437B614A4A7B6913648BE0484B5B6CDB
S1131B207B61BB68DB437A6913407B61BA687B687D
S1131B3013407A6913437B61414A7B69536479E0BA
S1131B403F4B9B6C7B61BB68DB437A6913407B61D1
S1131B50BA687B6813407A6913437B61384A7B69AE
S1131B60936467E0364BDB6C7B61BB68DB437A696B
S1131B7013407B61BA687B6813407A6913437B61C5
S1131B802F4A7B69D36455E02D4BD3F8CC307B616D
S1131B90BB68DB437A6913407B61BA687B68134096
S1131BA07A6913437B61264A7B69C2F8CC3041E0F1
S1131BB0234BD3F8D0307B61BB68DB437A69134095
S1131BC07B61BA687B6813407A6913437B611C4A62
S1131BD07B69C2F8D0302DE0194BD3F8D4307B6147
S1131BE0BB68DB437A6913407B61BA687B68134046
S1131BF07A6913437B61124A7B69C2F8D43019E0D5
S1131C000F4BD3F8D8307B61BB68DB437A69134050
S1131C107B61BA687B6813407A6913437B61084A25
S1131C207B69C2F8D83005E004484FF4E671FEF74A
S1131C3061FD00BF1837BD4680BD00BF60250000B0
S1131C4000A0084080B586B000AFF860B9607A6043
S1131C50FB68072B04DD5C484FF4F271FEF74AFD84
S1131C60FB68072B00F2AC8001A252F823F000BFFE
S1131C70911C0000B51C0000D91C0000FD1C0000D4
S1131C80211D0000491D0000711D0000991D000068
S1131C904E4B1B6D7B61BB68DB437A6913407B61F0
S1131CA0BA687B6813407A6913437B61474A7B694E
S1131CB0136586E0454B5B6D7B61BB68DB437A69EA
S1131CC013407B61BA687B6813407A6913437B6174
S1131CD03E4A7B69536574E03C4B9B6D7B61BB68FA
S1131CE0DB437A6913407B61BA687B6813407A6985
S1131CF013437B61354A7B69936562E0334BDB6D4B
S1131D007B61BB68DB437A6913407B61BA687B689B
S1131D1013407A6913437B612C4A7B69D36550E095
S1131D202A4BD3F8B4307B61BB68DB437A69134038
S1131D307B61BA687B6813407A6913437B61234AE9
S1131D407B69C2F8B4303CE0204BD3F8B8307B61F7
S1131D50BB68DB437A6913407B61BA687B681340D4
S1131D607A6913437B61194A7B69C2F8B83028E069
S1131D70164BD3F8BC307B61BB68DB437A691340F4
S1131D807B61BA687B6813407A6913437B610F4AAD
S1131D907B69C2F8BC3014E00C4BD3F8C0307B61D3
S1131DA0BB68DB437A6913407B61BA687B68134084
S1131DB07A6913437B61054A7B69C2F8C03000E04D
S1131DC000BF1837BD4680BD6025000000A0084054
S1131DD080B483B000AF78600649064B5B6823F497
S1131DE0E0127B6813434B600C37BD465DF8047BFF
S1131DF0704700BF00A0084080B584B000AF786091
S1131E007B68002B03D11A483E21FEF773FC194B63
S1131E105B69DBB203F00F03DBB29B00FB73154B72
S1131E201B6903F0C0039B09DAB2FB7B1343FB730A
S1131E307B68FA7B9A700F4B1B69DBB203F03F039C
S1131E40DAB27B685A700B4B9B69DBB223F00F0349
S1131E50FB73084BDB6903F0F0031B09DAB2FB7B6D
S1131E601343FB737B68FA7B1A701037BD4680BD41
S1131E70C4250000D0FF0FE080B500AF00F006F8E5
S1131E8000F01AF800F02CF880BD00BF80B500AF58
S1131E90074A074B1B6823F003031360044A044BEF
S1131EA01B6823F00C0313600248FEF755FA80BD4B
S1131EB000800C40006CDC0280B500AF11200421CE
S1131EC0FFF73CFA04480121FFF724F803480121F5
S1131ED0FFF720F880BD00BF4081040000D2040059
S1131EE080B400AFBD465DF8047B704780B400AF9A
S1131EF0044BDB6C1B0EDBB21846BD465DF8047B5D
S1131F00704700BFB081E00F80B582B000AFFFF72B
S1131F10EDFF0346FB713B1D1846FFF76DFFFB7990
S1131F200F2B0AD93B79022B07D9054A044B1B68AE
S1131F3023F0500343F0100313600837BD4680BDFF
S1131F40C0800C4080B483B000AF00237B6002E00B
S1131F507B6801337B607B68034A9342F8DD0C376E
S1131F60BD465DF8047B70471FA1070080B586B0AD
S1131F7000AFFFF7C9FFFFF77FFF0020FEF70CFB60
S1131F800023FB750EE0FB7D5B0007F11802134490
S1131F90002223F8142C3B1D1846FEF759FBFB7D49
S1131FA00133FB75FB7D062BEDD90023BB751DE0CA
S1131FB000237B7514E0BB7D7A7D012101FA02F2D6
S1131FC092B25B0007F118010B4423F8142C3B1D5B
S1131FD01846FEF73DFBFFF7B5FF7B7D01337B75AC
S1131FE07B7D0E2BE7D9BB7D0133BB75BB7D062BF7
S1131FF0DED900233B75F0E03B7D5B0007F118025E
S1132000134413F8142C42F0010203F8142C3B1D62
S11320101846FEF71DFBFFF795FF3B7D5B0007F1BC
S11320201802134413F8142C42F0020203F8142C7F
S11320303B1D1846FEF70CFBFFF784FF3B7D5B005E
S113204007F11802134413F8142C42F0040203F8A5
S1132050142C3B1D1846FEF7FBFAFFF773FF3B7D7C
S11320605B0007F11802134413F8142C42F0080221
S113207003F8142C3B1D1846FEF7EAFAFFF762FF3B
S11320803B7D5B0007F11802134413F8142C42F053
S1132090100203F8142C3B1D1846FEF7D9FAFFF77B
S11320A051FF3B7D5B0007F11802134413F8142C15
S11320B042F0200203F8142C3B1D1846FEF7C8FA20
S11320C0FFF740FF3B7D5B0007F11802134413F850
S11320D0142C42F0400203F8142C3B1D1846FEF762
S11320E0B7FAFFF72FFF3B7D5B0007F1180213449B
S11320F013F8142C42F0800203F8142C3B1D1846EC
S1132100FEF7A6FAFFF71EFF3B7D5B0007F11802FE
S1132110134413F8132C42F0010203F8132C3B1D53
S11321201846FEF795FAFFF70DFF3B7D5B0007F1BC
S11321301802134413F8132C42F0020203F8132C70
S11321403B1D1846FEF784FAFFF7FCFE3B7D5B005F
S113215007F11802134413F8132C42F0040203F895
S1132160132C3B1D1846FEF773FAFFF7EBFE3B7D7D
S11321705B0007F11802134413F8132C42F0080211
S113218003F8132C3B1D1846FEF762FAFFF7DAFE3C
S11321903B7D5B0007F11802134413F8132C42F043
S11321A0100203F8132C3B1D1846FEF751FAFFF7F3
S11321B0C9FE3B7D5B0007F11802134413F8132C8E
S11321C042F0200203F8132C3B1D1846FEF740FA98
S11321D0FFF7B8FE3B7D01333B753B7D062B7FF655
S11321E00BAFCDE608B5074B044613B10021AFF39E
S11321F00080054B1868836A03B19847204600F0B5
S113220033F800BF000000002C2600000E4B70B510
S11322101E460E4C0025E41AA410A54204D056F81C
S1132220253098470135F8E700F020F8084B094CB1
S11322301E46E41AA4100025A54204D056F8253001
S113224098470135F8E770BD6C0000206C00002051
S11322506C0000207000002003460244934202D028
S113226003F8011BFAE77047FEE700BFF8B500BFAB
S1132270F8BC08BC9E467047F8B500BFF8BC08BC63
S11322809E46704701010507070304020302040682
S113229005060D0E0E0E0D0D0D0D0E0E0E0E0D0D72
S11322A001010507070304020302040605060F10D3
S11322B010100F0F0F0F101010100F0F0101050752
S11322C00703040203020406050611121212111177
S11322D01111121212121111010105070703040250
S11322E0030204060506131C1C1C131313131C1CE5
S11322F01C1C131300010507060203010302040654
S113230004051D1E1E1E1D1D1D1D1E1E1E1E1D1D23
S113231000010507060203010302040604051F2049
S113232020201F1F1F1F202020201F1F0101050721
S113233007030402030204060506212222222121A6
S1132340212122222222212107050201030604233E
S1132350232323232323070502010306042424241F
S11323602424242407050201030604252525252504
S113237025250705020103060426262626262626E9
S11323800001070206272727272700000000000076
S11323900000131211100F0E0D0C00000000212577
S11323A0242601010304040203020D0E0D0D0E0D7B
S11323B00E0E01010304040203020F100F0F100F8D
S11323C0101001010304040203021112111112116D
S11323D012120101030404020302131C13131C133D
S11323E01C1C00010203040103021D1E1D1D1E1DF1
S11323F01E1E00010203040103021F201F1F201FD1
S113240020200101030404020302212221212221AC
S1132410222205070704040605060E0E0D0D0E0EF6
S11324200D0D050707040406050610100F0F101004
S11324300F0F0507070404060506121211111212E4
S1132440111105070704040605061C1C13131C1CA4
S1132450131305070603040604051E1E1D1D1E1E78
S11324601D1D050706030406040520201F1F202048
S11324701F1F050707040406050622222121222224
S11324802121000001000000030040000C000000B6
S11324900000000000000000633A5C73696C69632B
S11324A06F6E6C6162735C73696D706C696369747F
S11324B07973747564696F5C76345C646576656C95
S11324C06F7065725C73646B735C6765636B6F5F7D
S11324D073646B5F73756974655C76312E315C70FF
S11324E06C6174666F726D5C656D6C69625C696E5B
S11324F0635C656D5F636D752E680000433A2F530E
S1132500696C69636F6E4C6162732F53696D706C93
S1132510696369747953747564696F2F76342F64B1
S11325206576656C6F7065722F73646B732F676566
S1132530636B6F5F73646B5F73756974652F76315A
S11325402E312F706C6174666F726D2F656D6C69BE
S1132550622F7372632F656D5F636D752E63000068
S1132560433A2F53696C69636F6E4C6162732F53E6
S1132570696D706C696369747953747564696F2FDC
S113258076342F646576656C6F7065722F73646B37
S1132590732F6765636B6F5F73646B5F73756974C7
S11325A0652F76312E312F706C6174666F726D2FCA
S11325B0656D6C69622F7372632F656D5F6C636404
S11325C02E630000433A2F53696C69636F6E4C614C
S11325D062732F53696D706C696369747953747590
S11325E064696F2F76342F646576656C6F706572DD
S11325F02F73646B732F6765636B6F5F73646B5FBB
S113260073756974652F76312E312F706C61746621
S11326106F726D2F656D6C69622F7372632F656DB8
S11326205F73797374656D2E630043000C000020A2
S107263000000000A2
S10B263404DBFF7F010000003C
S113263C006CDC0200800000809FD50000000000CC
S113264C000000000000000000000000000000007A
S113265C0000000000000000000000002A2600001A
S113266C000000000000000000000000000000005A
S113267C000000000000000000000000000000004A
S113268C000000000000000000000000000000003A
S113269C0000000000000000000000000101000028
S10B26ACDD0000000000000045
S90301AD4E
