:1000000000000220E5350000113600001136000026
:1000100011360000113600001136000011360000C4
:1000200011360000113600001136000011360000B4
:1000300011360000113600001136000011360000A4
:1000400011360000113600008D1600001136000038
:100050001136000011360000113600001136000084
:100060001136000011360000113600001136000074
:100070001136000011360000113600001136000064
:100080001136000011360000113600001136000054
:100090001136000011360000113600001136000044
:1000A0001136000011360000113600001136000034
:1000B0001136000011360000113600001136000024
:1000C0001136000011360000113600001136000014
:1000D00011360000113600001136000010B5054C35
:1000E000237833B9044B13B10448AFF300800123E4
:1000F000237010BD8000002000000000D03A0000F6
:10010000084B10B51BB108480849AFF300800848F8
:10011000036803B910BD074B002BFBD0BDE81040AE
:10012000184700BF00000000D03A00008400002003
:100130007C00002000000000154B002B08BF134B73
:100140009D46A3F5803A00218B460F461348144A7A
:10015000121A03F093FB0F4B002B00D098470E4B65
:10016000002B00D098470020002104000D000D480E
:10017000002802D00C48AFF3008003F059FB2000A8
:10018000290001F023FA03F03FFB00BF0000080044
:10019000000002200000000000000000800000209D
:1001A000A0010020000000000000000080B483B027
:1001B00000AF0346FB71FB79002B03D0054B0122F6
:1001C0001A6602E0034B00221A660C37BD465DF842
:1001D000047B704700A0084080B483B000AF786013
:1001E00000BF054B5A6E7B681340002BF9D10C37CA
:1001F000BD465DF8047B704700A0084080B483B022
:1002000000AF0023FB7130E0FB79314A12F8133064
:10021000BB71FB792E4A5B0013445B787B717B7961
:10022000062B14D1BA7979792A481346DB009B1A38
:100230005B000B44034401221A70BA792549134626
:10024000DB009B1A5B000B440A3301221A70BA7957
:10025000797920481346DB009B1A5B000B4403446A
:1002600001221A70FB790133FB711B4B1B78FA7961
:100270009A42C9D3194B1B78BB71184B5B787B71C1
:100280007B79062B14D1BA79797912481346DB00B1
:100290009B1A5B000B44034401221A70BA790D4982
:1002A0001346DB009B1A5B000B440A3301221A70D1
:1002B000BA79797907481346DB009B1A5B000B4437
:1002C000034401221A700C37BD465DF8047B704769
:1002D0006401002000010020B1000020AC000020DB
:1002E00080B483B000AF0023FB7116E00023BB7124
:1002F0000DE0FA79B9790D481346DB009B1A5B00D3
:100300000B44034400221A70BB790133BB71BB79E3
:100310000D2BEED9FB790133FB71FB79062BE5D967
:100320000C37BD465DF8047B704700BF000100201C
:1003300080B584B000AF4FF0FF30FFF74DFF0120D4
:10034000FFF734FF01F03EFAFFF7CAFFFFF756FF51
:100350000023FB733DE00023BB7334E0FA7BB97BE1
:1003600020481346DB009B1A9B0003440B440833D0
:100370009B79BB60FA7BB97B1A481346DB009B1A5A
:100380009B000B4403441B787B60FA7BB97B1648C7
:100390001346DB009B1A5B000B4403441B78012BC4
:1003A00007D17A68BB6810461946012202F0C8FDE1
:1003B00006E07A68BB6810461946002202F0C0FDCC
:1003C000BB7B0133BB73BB7B0D2BC7D9FB7B0133DD
:1003D000FB73FB7B062BBED90020FFF7E7FE10372F
:1003E000BD4680BDA83800000001002080B584B063
:1003F00000AF0346FB710C23FB730723BB73B97B70
:10040000FA7BFB79084611461A4602F099FD0C2347
:10041000FB730523BB73B97BFA7BFB790846114656
:100420001A4602F08DFD0C23FB730523BB73B97BC9
:10043000FA7BFB79084611461A4602F081FD0C232F
:10044000FB730623BB73B97BFA7BFB790846114625
:100450001A4602F075FD1D23FB730723BB73B97B9E
:10046000FA7BFB79084611461A4602F069FD1F2304
:10047000FB730723BB73B97BFA7BFB7908461146F4
:100480001A4602F05DFDFB79002B14BF0123002307
:10049000DBB283F00103DBB203F00103DBB21846E9
:1004A0001037BD4680BD00BF80B586B000AF0346A3
:1004B000FB80FB8842F20F72934201D90023FB803C
:1004C000FA884A4BA3FB0213D9080B469B000B4446
:1004D0005B00D31A9BB2DBB23B73FB88434AA2FB9F
:1004E0000323DB08FB80FA88404BA3FB0213D908E7
:1004F0000B469B000B445B00D31A9BB2DBB27B73B1
:10050000FB883A4AA2FB0323DB08FB80FA88374BBF
:10051000A3FB0213D9080B469B000B445B00D31AC4
:100520009BB2DBB2BB73FB88304AA2FB0323DB0820
:10053000FB80FA882D4BA3FB0213D9080B469B00C6
:100540000B445B00D31A9BB2DBB2FB730023FB7539
:1005500045E00023BB7501237B753AE0FA7DB97D48
:1005600023481346DB009B1A5B0003440B44C03353
:10057000DB7A3B75FA7DB97D1D481346DB009B1A7B
:100580005B0003440B44C0331B79FB74FB7D07F114
:100590001802134413F80C3C1A46164B9A5C7B7DE8
:1005A0001340DBB2002B07D0FA7C3B7D1046194686
:1005B000012202F0C5FC06E0FA7C3B7D104619469C
:1005C000002202F0BDFCBB7D0133BB757B7D5B006F
:1005D0007B75BB7D062BC1D9FB7D0133FB75FB7D94
:1005E000032BB6D91837BD4680BD00BFCDCCCCCCCF
:1005F000A8380000A83A000080B483B000AF78604B
:100600007B685B6A18460C37BD465DF8047B704713
:1006100080B483B000AF78600B46FB70FA787B68DB
:100620005A600C37BD465DF8047B704780B500AF5B
:100630000D480121FFF7ECFF00BF0B4B9B6903F056
:100640000103002BF9D00848FFF7D6FF0346074AFD
:100650001278C2F12502B3FBF2F102FB01F29B1A00
:10066000DBB2184680BD00BF00200040B100002072
:1006700080B584B000AF0023FB730023BB7300235D
:100680007B7357E17B7B3B7100237B7100233B73C2
:1006900013E03B7BAF4A12F813203B799A4209D111
:1006A0003B7BAC4A5B0013445A787B799A4201D178
:1006B0000123FB733B7B01333B73A74B1B783A7BD6
:1006C0009A42E6D3FB7B83F00103DBB2002B09D017
:1006D000BB7BA24A5B0013443A1D12881A80BB7B85
:1006E0000133BB730023FB7303237B710023FB7275
:1006F00013E0FB7A974A12F813203B799A4209D10A
:10070000FB7A944A5B0013445A787B799A4201D170
:100710000123FB73FB7A0133FB728F4B1B78FA7A50
:100720009A42E6D3FB7B83F00103DBB2002B09D0B6
:10073000BB7B8A4A5B0013443A1D12881A80BB7B3C
:100740000133BB730023FB7304237B710023BB7253
:1007500013E0BB7A7F4A12F813203B799A4209D101
:10076000BB7A7C4A5B0013445A787B799A4201D168
:100770000123FB73BB7A0133BB72774B1B78BA7AC8
:100780009A42E6D3FB7B83F00103DBB2002B09D056
:10079000BB7B724A5B0013443A1D12881A80BB7BF4
:1007A0000133BB730023FB7305237B7100237B7232
:1007B00013E07B7A674A12F813203B799A4209D1F9
:1007C0007B7A644A5B0013445A787B799A4201D160
:1007D0000123FB737B7A01337B725F4B1B787A7A40
:1007E0009A42E6D3FB7B83F00103DBB2002B09D0F6
:1007F000BB7B5A4A5B0013443A1D12881A80BB7BAC
:100800000133BB730023FB7306237B7100233B7210
:1008100013E03B7A4F4A12F813203B799A4209D1F0
:100820003B7A4C4A5B0013445A787B799A4201D157
:100830000123FB733B7A01333B72474B1B783A7AB7
:100840009A42E6D3FB7B83F00103DBB2002B09D095
:10085000BB7B424A5B0013443A1D12881A80BB7B63
:100860000133BB730023FB737B7B062B5FD101231A
:100870007B710023FB7113E0FB79364A12F81320D9
:100880003B799A4209D1FB79324A5B0013445A788A
:100890007B799A4201D10123FB73FB790133FB7110
:1008A0002D4B1B78FA799A42E6D3FB7B83F0010348
:1008B000DBB2002B09D0BB7B284A5B0013443A1DF6
:1008C00012881A80BB7B0133BB730023FB730223A6
:1008D0007B710023BB7113E0BB791E4A12F8132011
:1008E0003B799A4209D1BB791A4A5B0013445A7882
:1008F0007B799A4201D10123FB73BB790133BB7130
:10090000154B1B78BA799A42E6D3FB7B83F001033F
:10091000DBB2002B09D0BB7B104A5B0013443A1DAD
:1009200012881A80BB7B0133BB730023FB737B7B74
:1009300001337B737B7B062B7FF6A4AEFFF776FE3D
:1009400003460749054A5B0013441B880B80103798
:10095000BD4680BD64010020B1000020B40000202D
:10096000AC00002080B500AF0B4B00221A700A4B80
:1009700006225A70094B01221A70094B00221A7084
:10098000084B00221A70084B00221A70074B0122F4
:100990001A70FFF76DFE80BD64010020B1000020D9
:1009A000AF000020B0000020FE000020AE000020BC
:1009B00080B590B000AF984B1A78984B1A70984B4E
:1009C00000221A70002387F83F3013E097F83F3079
:1009D00097F83F105B0007F1400213449148A3F1E0
:1009E00040024B0003441B88138097F83F300133CB
:1009F00087F83F308C4B1B7897F83F209A42E5D31D
:100A0000884B5B78002B14D1884B1B78002B10D1BE
:100A1000824B1B78002B0CD1824B1B780133DAB24E
:100A2000804B1A707F4B1B78072B02D17D4B002225
:100A30001A707C4B5B78002B14D17C4B1B78022BFB
:100A400010D1764B1B78022B0CD1764B1B78013BD7
:100A5000DAB2744B1A70734B1B78FF2B02D1714BB7
:100A600006221A706F4B5B78002B0AD16F4B1B78F4
:100A7000022B06D1694B1B78032B02D1694B05224F
:100A80005A70684B5B78002B18D1684B1B78002B91
:100A900014D1624B1B78032B10D1624B1B78062BB1
:100AA00003D1604B01225A7008E05E4B1B78013382
:100AB000DAB25C4B1A705B4B05225A70594B5B786B
:100AC000002B0AD1594B1B78022B06D1534B1B78B4
:100AD000012B02D1534B04225A70524B5B78002BEE
:100AE00018D1524B1B78002B14D14C4B1B78012B87
:100AF00010D14C4B1B78062B03D14A4B02225A7063
:100B000008E0484B1B780133DAB2464B1A70454B6C
:100B100004225A70434B5B78062B14D1434B1B784D
:100B2000002B10D13D4B1B78002B0CD13D4B1B787B
:100B30000133DAB23B4B1A703A4B1B78072B02D1C8
:100B4000384B00221A70374B5B78062B14D1374B89
:100B50001B78022B10D1314B1B78022B0CD1314B5F
:100B60001B78013BDAB22F4B1A702E4B1B78FF2BF0
:100B700002D12C4B06221A702A4B5B78062B0AD125
:100B80002A4B1B78022B06D1244B1B78032B02D156
:100B9000244B04225A70234B5B78062B18D1234B2D
:100BA0001B78002B14D11D4B1B78032B10D11D4B30
:100BB0001B78062B03D11B4B02225A7008E0194BFD
:100BC0001B780133DAB2174B1A70164B04225A7095
:100BD000144B5B78062B0AD1144B1B78022B06D1E1
:100BE0000E4B1B78012B02D10E4B05225A700D4B78
:100BF0005B78062B25D10D4B1B78002B21D1074BA1
:100C00001B78012B1DD1074B1B78062B10D1054BF0
:100C100001225A7015E000BFAF000020FE00002046
:100C2000A000002064010020B1000020B0000020DE
:100C3000444B1B780133DAB2424B1A70414B052208
:100C40005A70404B5B78032B14D13F4B1B78002B21
:100C500010D13E4B1B78002B0CD13A4B1B78013343
:100C6000DAB2384B1A70374B1B78072B02D1354B51
:100C700000221A70334B5B78032B14D1324B1B7854
:100C8000022B10D1314B1B78022B0CD12D4B1B7832
:100C9000013BDAB22B4B1A702A4B1B78FF2B02D187
:100CA000284B06221A70274B5B78032B0AD1264B60
:100CB0001B78022B06D1254B1B78032B02D1214B2D
:100CC00005225A701F4B5B78032B18D11E4B1B78E3
:100CD000002B14D11D4B1B78032B10D1194B1B7803
:100CE000062B03D1174B01225A7008E0154B1B78D5
:100CF0000133DAB2134B1A70124B05225A70114BA2
:100D00005B78032B0AD1104B1B78022B06D10F4BBB
:100D10001B78012B02D10B4B04225A70094B5B78D4
:100D2000032B1ED1084B1B78002B1AD1074B1B78C5
:100D3000012B16D1034B1B78062B09D1014B022244
:100D40005A700EE064010020B0000020FE00002078
:100D5000984B1B780133DAB2964B1A70954B0422EC
:100D60005A70944B5B78042B03D0924B5B78052B25
:100D700014D1914B1B78012B10D1904B1B78012B78
:100D80000CD18C4B5B780133DAB28A4B5A70894BA9
:100D90005B78062B02D1874B04225A70854B5B7817
:100DA000042B03D0834B5B78052B14D1824B1B782B
:100DB000032B10D1814B1B78032B0CD17D4B5B781F
:100DC000013BDAB27B4B5A707A4B5B78032B02D132
:100DD000784B05225A70774B5B78042B0AD1764BFF
:100DE0001B78012B06D1754B1B78002B02D1714B60
:100DF00006225A706F4B5B78042B17D16E4B1B7811
:100E0000012B13D16D4B1B78022B0FD1694B06229E
:100E10005A70684B1B78013BDAB2664B1A70654B0F
:100E20001B78FF2B02D1634B06221A70614B5B7853
:100E3000042B0AD1604B1B78032B06D15F4B1B7828
:100E4000002B02D15B4B03225A705A4B5B78042B68
:100E500017D1594B1B78032B13D1584B1B78022BFE
:100E60000FD1544B03225A70524B1B78013BDAB21C
:100E7000504B1A704F4B1B78FF2B02D14D4B062263
:100E80001A704C4B5B78052B0AD14B4B1B78012B0E
:100E900006D14A4B1B78002B02D1464B00225A70D8
:100EA000444B5B78052B17D1434B1B78012B13D197
:100EB000424B1B78022B0FD13E4B00225A703D4B08
:100EC0001B78013BDAB23B4B1A703A4B1B78FF2B75
:100ED00002D1384B06221A70364B5B78052B0AD1AB
:100EE000354B1B78032B06D1344B1B78002B02D1DA
:100EF000304B06225A702F4B5B78052B17D12E4BA7
:100F00001B78032B13D12D4B1B78022B0FD1294BB0
:100F100006225A70274B1B78013BDAB2254B1A7018
:100F2000244B1B78FF2B02D1224B06221A70214B37
:100F30005B78012B03D01F4B5B78022B14D11E4B27
:100F40001B78012B10D11D4B1B78012B0CD1194B99
:100F50005B78013BDAB2174B5A70164B5B78002B6B
:100F600002D1144B02225A70124B5B78012B03D032
:100F7000104B5B78022B14D10F4B1B78032B10D135
:100F80000E4B1B78032B0CD10A4B5B780133DAB282
:100F9000084B5A70074B5B78032B02D1054B01229B
:100FA0005A70044B5B78012B11D1034B1B78012B3A
:100FB0000DD105E064010020B0000020FE000020FB
:100FC0006D4B1B78022B02D16C4B00225A706B4B7D
:100FD0005B78012B0DD16A4B1B78012B09D1664B35
:100FE0001B78002B05D1654B00225A70634B002201
:100FF0001A70624B5B78012B0AD1614B1B78032B73
:1010000006D15D4B1B78022B02D15C4B06225A7035
:101010005A4B5B78012B0DD1594B1B78032B09D10F
:10102000554B1B78002B05D1544B06225A70534B5D
:1010300000221A70514B5B78022B0AD1504B1B785F
:10104000012B06D14C4B1B78022B02D14B4B0622B5
:101050005A704A4B5B78022B0DD1494B1B78012B00
:1010600009D1454B1B78002B05D1444B06225A7001
:10107000424B00221A70414B5B78022B0AD1404B45
:101080001B78032B06D13C4B1B78022B02D13B4B28
:1010900003225A70394B5B78022B0DD1384B1B78E9
:1010A000032B09D1344B1B78002B05D1334B032282
:1010B0005A70324B00221A702F4B1A78304B1A702C
:1010C0002E4B5A782F4B5B789A420DD12B4B1A78C6
:1010D0002C4B1B789A4207D12B4B1B780133DAB289
:1010E000294B1A70FFF7C4FA002387F83E3013E04B
:1010F00097F83E30013397F83E202049520007F11F
:10110000400002445B000B44403A12881A8097F872
:101110003E30013387F83E301B4B1B7897F83E205A
:101120009A42E5D3012387F83D301BE0134B5A78F0
:1011300097F83D3011495B000B445B789A420CD123
:101140000E4B1A7897F83D300C4911F813309A423B
:1011500003D10E4B00221A700AE097F83D3001339C
:1011600087F83D30084B1B7897F83D209A42DDD335
:101170004037BD4680BD00BFFE0000206401002056
:10118000B0000020AC000020B1000020AE00002024
:1011900080B483B000AF0346FB71084997F907306C
:1011A0005B09FA7902F01F02012000FA02F241F80D
:1011B00023200C37BD465DF8047B704700E100E05A
:1011C00080B483B000AF78604FF6FF7318460C37D9
:1011D000BD465DF8047B704780B582B000AF786093
:1011E00039607868FFF7ECFF7B683A685A62083725
:1011F000BD4680BD80B483B000AF786039607B6845
:101200003A689A610C37BD465DF8047B704700BFB1
:1012100080B483B000AF786039607B68DA683B687F
:101220001A437B68DA600C37BD465DF8047B704773
:1012300080B582B000AF786039607868FFF7C0FF92
:101240007B683A68DA610837BD4680BD80B500AF7B
:1012500000F00AF800F01EF800F040F800F0BAF8CC
:1012600000F07CF880BD00BF80B500AF074A074B97
:101270001B6823F003031360044A044B1B6823F02C
:101280000C031360024802F083FA80BD00800C401A
:10129000006CDC0280B500AF1120042101F05CFA83
:1012A0000A48012101F050F80848012100F034FFFC
:1012B0000748012101F048F80648012101F044F8EF
:1012C0000548012101F040F880BD00BF40810400C5
:1012D00000D20400000205000052040080B586B070
:1012E00000AF00233B7400237B740023BB741F23D7
:1012F000FB7400233B7500237B7500233B710023A7
:101300007B710023BB710023FB7100233B72002320
:101310007B720023BB720023FB7200233B7300200F
:1013200000F062FC0346FB740A48002100F02AFC2E
:1013300003463B7507F110030748194600F090FB80
:101340000223BB713B1D0448194600F0CDFB183742
:10135000BD4680BDC0CF6A000020004080B584B08B
:1013600000AF01233B7000237B700023BB70002380
:10137000FB7000233B7100237B710023BB710023B2
:10138000FB7100233B7200237B720023BB7200239E
:10139000FB7200233B730723BB703B460C48194686
:1013A00002F0B2F80A480021FFF716FF08487D2135
:1013B000FFF73EFF06480121FFF71CFF044801210B
:1013C000FFF726FF0220FFF7E3FE1037BD4680BD82
:1013D0000000014080B500AF012009210122002357
:1013E00001F078FC01200A210122002301F072FCA7
:1013F000032000210122002301F06CFC04200221C3
:101400000422002301F066FC0420032104220023AF
:1014100001F060FC80BD00BF80B400AF044BDB6C0A
:101420001B0EDBB21846BD465DF8047B704700BF5B
:10143000B081E00F80B483B000AF0346FB71FB794D
:10144000002B0DD0FB79012B0AD0FB79022B07D0A2
:10145000FB79032B04D0FB79042B01D0FB79052BFE
:101460000749FA791346DB0013449B000B441833F9
:101470005B6818460C37BD465DF8047B704700BFBB
:101480000060004080B582B000AFFFF7C5FF0346A3
:10149000FB713B1D184601F0D5FFFB790F2B0AD9D4
:1014A0003B79022B07D9054A044B1B6823F05003F4
:1014B00043F0100313600837BD4680BDC0800C4068
:1014C00080B483B000AF786039607B683A689A6115
:1014D0000C37BD465DF8047B704700BF80B582B015
:1014E00000AF0120FFF7A6FF3860324B1B881A4679
:1014F0003B681340002B02D00123FB7101E0002365
:10150000FB712D4B1B881A463B681340002B02D001
:101510000123BB7101E00023BB71284B1B78002B1A
:101520001DD0BB7983F00103DBB2002B17D0244B15
:101530001B7883F00103DBB2002B10D0214B1B780A
:10154000002B03D11F4B03221A7005E01D4B1B78A3
:10155000013BDAB21B4B1A70194B01221A701A4B5D
:101560001B78002B1DD0FB7983F00103DBB2002B2D
:1015700017D0134B1B7883F00103DBB2002B10D084
:10158000104B1B78032B03D10E4B00221A7005E081
:101590000C4B1B780133DAB20A4B1A70084B01224C
:1015A0001A70094AFB791370044ABB791370083723
:1015B000BD4680BD00000020020000200500002084
:1015C000A0000020AF0000200400002080B582B001
:1015D00000AFFFF757FFFFF739FE002000F046F994
:1015E000FFF7C0F914E0FEF7A3FE224B1B789BB275
:1015F000013B9BB21846FEF757FF1F4B1B78002B91
:1016000003D01D4B00221A7000E0F6E7FFF7D0F977
:101610001A4B1B78012BE6D026E00120FFF70AFFCA
:101620007860174B1A88174B1B8813439BB21A46D6
:101630007B6813407B60104B1B78002B14D0124B3F
:101640001B781846FEF7D2FE03461A460E4B1A7058
:10165000094B00221A707B68002B05D10020FEF791
:10166000C5FEFFF77FF903E0044B1B78002BD4D0B5
:10167000B8E700BFB10000209C000020AE000020B1
:1016800000000020020000200600002080B500AF0E
:10169000FFF724FF0B4B1B8801339AB2094B1A80CA
:1016A000084B1B8840F6C412934205D1064B012219
:1016B0001A70044B00221A8004480121FFF700FF32
:1016C00080BD00BF9E0000209C0000200000014063
:1016D00080B483B000AF786000BF054B5A6E7B6862
:1016E0001340002BF9D10C37BD465DF8047B7047E1
:1016F00000A0084080B483B000AF78600549054B76
:101700009A6A7B68DB4313408B620C37BD465DF8F9
:10171000047B704700A0084080B500AF0020284936
:10172000002201F0FFFC01202549002201F0FAFC13
:1017300002202349002201F0F5FC03202049002269
:1017400001F0F0FC04201E49002201F0EBFC052012
:101750001B49002201F0E6FC06201949002201F095
:10176000E1FC07201649002201F0DCFC0020FF21EB
:10177000002201F095FD0120FF21002201F090FDE3
:101780000220FF21002201F08BFD0320FF21002217
:1017900001F086FD0420FF21002201F081FD0520DB
:1017A000FF21002201F07CFD0620FF21002201F034
:1017B00077FD0720FF21002201F072FD80BD00BFF0
:1017C00000F00FF080B500AF07202649002201F09D
:1017D000A9FC06202449002201F0A4FC052022498E
:1017E000002201F09FFC04201F49002201F09AFC16
:1017F00003201D49002201F095FC02201A49002215
:1018000001F090FC01201849002201F08BFC00201F
:101810004FF02041002201F085FC07200721002223
:1018200001F03EFD06200721002201F039FD0520D0
:101830000721002201F034FD04200721002201F0DD
:101840002FFD03200721002201F02AFD022007219D
:10185000002201F025FD01200721002201F020FDDA
:1018600000BF80BD00E00F5000E00FF080B582B0F7
:1018700000AF0346FB712548012100F065FD2448B7
:10188000032100F069FF2348402100F045FC0120BE
:1018900001F0C2F82048012100F056FD4FF0FF3062
:1018A000FFF728FF1D4801F0CDFA0820012101F0C3
:1018B00027FB1020012101F023FB8020012101F0F2
:1018C0001FFB4FF48070012101F01AFB4FF40070F0
:1018D000012101F015FBFB79002B0DD04FF44020C6
:1018E00001F09CFD4FF4803001F0E8FA0C4A0C4BFB
:1018F000DB6F43F00803D367FFF70EFF4FF0FF30B5
:10190000FFF7E6FE0837BD4680BD00BF004302007A
:1019100002001A006000260000362800B43A0000D9
:1019200000800C4080B489B000AF78600B46FB703B
:101930001346BB70BB78002B04D010237B61444B53
:10194000BB6103E000237B61424BBB617B685A6B48
:10195000BB6913403B610023FB617B683E4A9342B5
:1019600016D13E4BFB60FB78062B61D801A252F8E2
:1019700023F000BF93190000B1190000D519000031
:10198000F7190000311A0000311A00001F1A000078
:1019900058E0FB681B6803F4FE43FA691343FB61DC
:1019A000FB681B6803F07F03FA691343FB6142E0A5
:1019B000FB681B6803F0FE431B0E1B02FA6913430E
:1019C000FB61FB681B6803F4FE031B0CFA691343FD
:1019D000FB6130E0FB6804331B6803F4FE43FA69E3
:1019E0001343FB61FB6804331B6803F07F03FA6950
:1019F0001343FB611FE0FB6804331B6803F0FE43E5
:101A00001B0E1B02FA691343FB61FB6804331B685E
:101A100003F4FE031B0CFA691343FB610BE0FB6844
:101A200008331B6803F07F03FA691343FB6102E08C
:101A30000023FB6100BF7B69FA699A403B691A4346
:101A40007B685A632437BD465DF8047B704700BF4E
:101A5000FFFF80808080FFFF00200040B481E00F06
:101A600080B584B000AF786039603B681B79FB7249
:101A7000FB7A002B06D11B48002100F083F80346B7
:101A8000FB7208E01748002100F07CF84FF4FA40A0
:101A9000002100F077F87B680A225A603B681B78C7
:101AA0001A063B68DB781B0403F4F8131A43FB7A2D
:101AB0001B0203F4FE431A433B685B781B0113438C
:101AC0003A6892781343FB603B685B79002B03D044
:101AD000FB6843F00803FB607B68FA681A60103704
:101AE000BD4680BD405DC60080B584B000AF786063
:101AF00039607B6802225A603B689B787868194697
:101B00000022FFF70FFF3B681B781A073B685B78E2
:101B10001B051A433B681B791B0213431A463B689B
:101B2000DB781B011343FB603B689B79002B03D0E0
:101B3000FB6843F08073FB603B68DB79002B03D0CC
:101B4000FB6843F00403FB603B685B79002B03D028
:101B5000FB6843F00203FB603B681B7A002B03D059
:101B6000FB6843F00103FB603B689B781B041A464B
:101B7000FB681343FB607B68FA68DA601037BD4688
:101B800080BD00BF80B584B000AF786039607B68ED
:101B9000134A934202D9124B7B6006E07B68B3F58F
:101BA000FA4F02D24FF4FA437B603B68002B03D11B
:101BB0000C4800F035FC38603A687B6813445A1EC4
:101BC0007B68B2FBF3F3FB60FB68002B02D0FB6881
:101BD000013BFB60FB68DBB218461037BD4680BD99
:101BE000405DC6004081040080B582B000AF7860DF
:101BF0007B68002B08D1114800F012FC78607B68EC
:101C0000002B01D101237B607B680D4A934201D9EF
:101C10000B4B7B607B6803F5742303F23F237B60EF
:101C20007B68084AA2FB03239B0C7B607B68DBB2CA
:101C3000013BDBB218460837BD4680BD4081040039
:101C40000048E80183DE1B4380B400AF044BDB6C2B
:101C50001B0EDBB21846BD465DF8047B704700BF23
:101C6000B081E00F80B400AF054BDB6C03F47F0361
:101C70001B0CDBB21846BD465DF8047B704700BF05
:101C8000B081E00F80B487B000AFF860B9607A60CF
:101C9000FB6803F10473DA00BB6813449B007B61AB
:101CA0007B697A681A601C37BD465DF8047B704713
:101CB00080B485B000AF786039607B6803F104734D
:101CC000DA003B6813449B00FB60FB681B68184606
:101CD0001437BD465DF8047B704700BF80B485B003
:101CE00000AF78607B68002B04D07B68B3F5004FB1
:101CF00000D800BF7B68B3FA83F3C3F11F03FB6016
:101D0000FB6818461437BD465DF8047B704700BF7A
:101D100080B582B000AFFFF7A5FF03464A2B04D081
:101D2000792B02D0482B21D022E0144B1B699BB2A7
:101D300003F03F039BB21B02FB80104B9B6903F037
:101D4000F0039AB2FB881343FB800C4BDB6903F072
:101D5000F0031B099AB2FB881343FB80FB88B3F5A1
:101D6000017F01D3064B04E0064B02E0054B00E087
:101D7000002318460837BD4680BD00BFD0FF0FE0E6
:101D800000366E010048E80180B584B000AF78608D
:101D900039607A683B689A428CBF01230023DBB22A
:101DA000FB6006481E21FA68FFF76CFF0448082113
:101DB000FA68FFF767FF1037BD4680BD00800C4012
:101DC00004800C4080B582B000AF07481E21FFF7A9
:101DD0006FFF786005480821FFF76AFF38607B686D
:101DE00018460837BD4680BD00800C4004800C407A
:101DF00080B582B000AF214B5B6903F4E063B3F5BB
:101E0000007F1CD0B3F5007F05D8002B25D0B3F59B
:101E1000807F1FD02AE0B3F5C06F24D0B3F5E06F08
:101E20001ED0B3F5407F21D1FFF70EFF0346122BE2
:101E300002D9134B7B601CE0124B7B6019E0FFF76B
:101E400003FF0346122B02D90F4B7B6011E00F4BAF
:101E50007B600EE00E4B7B600BE00E4B7B6008E07E
:101E60000D4B7B6005E00D4B7B6002E000237B6047
:101E700000BF7B6818460837BD4680BD00800C4017
:101E8000804F120040420F0040B56400C0CF6A008E
:101E9000C0D8A700809FD500406F4001003FAB0134
:101EA00080B582B000AF0D4800F0A6FB0346FB7082
:101EB000FB78072B05D0092B07D101F0DDFB7860FB
:101EC00006E0FFF795FF786002E000237B6000BF2B
:101ED0007B6818460837BD4680BD00BF06000C0071
:101EE00080B485B000AF7860284BDB6B002B14BF4B
:101EF00001230023BB72254B41F67132DA63234B79
:101F00005B6803F00703FB60FB68012B01D9042B1E
:101F100002D10023FB7202E00123FB7200BF7B6849
:101F20001B4A934207D9FB7A002B01D0052300E01E
:101F30000423FB6016E07B68154A93420BD87B684C
:101F4000144A934207D9FB7A002B01D0032300E007
:101F50000123FB6006E0FB7A002B01D0022300E0A6
:101F60000023FB600949094B5B6823F00702FB680B
:101F700013434B60BB7A002B02D0044B0022DA6380
:101F80001437BD465DF8047B704700BF00000C406D
:101F90000048E8010024F40080B500AF01F062FBC6
:101FA00003461846FFF79CFF80BD00BF90B585B083
:101FB00000AF78600023BB607B68344A934203D053
:101FC000334A934200D000E000BF786800F014FB71
:101FD0000346FB607B682D4A934203D02C4A934210
:101FE00006D00CE02B4B9B6A03F00303FB6006E07A
:101FF000284B9B6A03F00C039B08FB6000BFFB6847
:10200000032B3AD801A252F823F000BF432000006E
:102010001D200000252000002D20000001F0D4FB31
:10202000B8602DE001F0E4FBB86029E001F000FBAE
:102030000446FFF7C7FE0346013324FA03F3BB60EF
:102040001EE00023BB607B68104A934203D07B688C
:102050000F4A934210D10F4B9A6A7B680B498B420F
:1020600001D1102300E0142322FA03F3002B03D044
:1020700001F0B4FBB86003E002E00023BB6000BFE6
:10208000BB6818461437BD4690BD00BF02001A0059
:1020900003001C0000800C4080B483B000AF786067
:1020A000094B5B6D03F00103002B00D006E000BF7D
:1020B000054B1A6D7B681340002BF9D10C37BD46D8
:1020C0005DF8047B704700BF00800C4080B582B093
:1020D00000AF104800F090FA0346FB70FB78032B2A
:1020E00007D0092B09D0022B0BD101F081FB7860BE
:1020F0000AE001F069FB786006E001F0BDFA786063
:1021000002E000237B6000BF7B6818460837BD46AD
:1021100080BD00BF07232200B0B584B000AF786057
:1021200039607B681B0903F00F03FB60FB68013B10
:10213000062B00F2F68001A252F823F0592100008C
:1021400023230000232300008D210000B72100007D
:102150000B220000CF2200003B68002B03D03B681D
:10216000082B00D800BFFFF717FF70496F4B1B68A3
:1021700023F4E0323B68013B9B0313430B6001F007
:1021800057FAB860B868FFF7ABFECBE03B68002BAE
:1021900004D03B68B3F5007F00D800BF3868FFF774
:1021A0009DFD38606149614B9B6823F00F023B68DD
:1021B00013438B60B6E03B68002B04D03B68B3F55B
:1021C000007F00D800BFFFF7E7FE01F055FA024696
:1021D0003B68B2FBF3F4FFF79BFD0346204619462C
:1021E000FFF7D2FD3868FFF779FD38604F494F4B54
:1021F0005B6823F00F023B6813434B6001F018FA51
:10220000B860B868FFF76CFE8CE07B68484A934280
:102210001ED0474A934203D8464A934207D055E01E
:10222000454A934225D0454A93423FD04EE0042090
:10223000FFF732FF3868FFF751FD38603B493B4BF1
:102240009B6E23F0F0023B681B0113438B663DE05D
:102250000420FFF721FF3868FFF740FD386033495D
:10226000324B9B6E23F470623B681B0213438B66F8
:102270002CE03B680F2B03D93B68802B00D800BFB4
:102280000420FFF709FF3868FFF728FD3860274D65
:10229000264B9B6E23F440541020FFF71FFD02468F
:1022A0003B689B1A1B032343AB660FE00420FFF738
:1022B000F3FE3868FFF712FD38601C491B4B9B6E1C
:1022C00023F003023B6813438B6600BF2AE07B6860
:1022D0001B4A934203D01B4A934210D020E0402077
:1022E000FFF7DAFE3868FFF7F9FC38600F490F4B4B
:1022F0001B6F23F003023B6813430B6710E0402081
:10230000FFF7CAFE3868FFF7E9FC38600749074B5A
:102310001B6F23F030023B681B0113430B6700BFA8
:1023200000E000BF1037BD46B0BD00BF00800C40CC
:1023300060261400601610006000260060062A0067
:10234000700716007017180090B587B000AF78605E
:102350000B46FB7000233B617B681B0A03F00F03F5
:10236000013B092B49D801A252F823F0B123000008
:10237000B723000095230000FB230000FB2300008F
:10238000BD230000C7230000FB230000FB23000047
:10239000D12300001B4B7B611B4800F041F8044631
:1023A000FFF7B6FC034620461946FFF7EDFC12E0A6
:1023B000164B7B610FE0164B7B610CE0154B7B618C
:1023C00001233B6107E0144B7B6110233B6102E07A
:1023D000124B7B6100BF7B681B0B03F01F03FB608C
:1023E0003B69002B02D03869FFF756FEFB7878690D
:1023F000F9681A46FFF746FC00E000BF1C37BD46EF
:1024000090BD00BF40800C400043020008800C409B
:1024100044800C4058800C4060800C4078800C4018
:1024200090B585B000AF78607B6803F47813B3F59E
:10243000B01F00F0AB80B3F5B01F1AD8B3F5402F32
:1024400000F0BF80B3F5402F08D8B3F5003F3CD073
:10245000B3F5802F2DD0002B27D0BEE0B3F5801F21
:102460003CD0B3F5A01F47D0B3F5602F00F0AD808E
:10247000B3E0B3F5081F00F0AC80B3F5081F0AD82D
:10248000B3F5D01F25D0B3F5E01F7AD0B3F5C01F48
:1024900000F08980A1E0B3F5201F4ED0B3F5281FCE
:1024A00062D0B3F5181F35D097E001F0E5F8F86079
:1024B00096E001F0E1F8F8604C4B9B6803F00F03E5
:1024C0001A46FB68D340FB608AE001F0B1F8F8607F
:1024D00086E04748FFF76AFDF86081E04448FFF76F
:1024E00065FDF860414B9B6E03F0F0031B091A4633
:1024F000FB68D340FB6073E03D48FFF757FDF86091
:102500003A4B9B6E03F470631B0A1A46FB68D34078
:10251000FB6065E03648FFF749FDF860334B9B6E82
:1025200003F440531C0B1020FFF7D8FB0346234451
:102530001A46FB68D340FB6052E02D48FFF736FD9A
:10254000F8602A4B9B6E03F440531B0B1A46FB6842
:10255000D340FB60254BDB6F03F007030133FA68C0
:10256000B2FBF3F3FB603BE02148FFF71FFDF8608F
:102570001E4B9B6E03F003031A46FB68D340FB60BF
:102580002EE01C48FFF712FDF86029E01948FFF71C
:102590000DFDF860154B1B6F03F003031A46FB6833
:1025A000D340FB601CE01348FFF700FDF8600F4BC1
:1025B0001B6F03F030031B091A46FB68D340FB6016
:1025C0000EE0FFF76DFCF8600AE0FFF711FCF86021
:1025D00006E0FFF77BFDF86002E00023FB6000BF30
:1025E000FB6818461437BD4690BD00BF00800C4004
:1025F00002001A0003001C0080B485B000AF7860B0
:102600000123FB737B6803F00F03BB60BB68013BD6
:10261000062B00F2958001A252F823F03926000023
:102620006F260000AB260000412700004127000074
:10263000E72600000D270000464BDB6A03F47053C9
:10264000B3F5805F09D0B3F5005F03D0B3F5006F39
:1026500006D008E00223FB7308E00323FB7305E0C8
:102660000423FB7302E00523FB7300BF6BE0394BCF
:102670009B6A03F00303022B06D0032B07D0012B28
:1026800008D10323FB730FE00223FB730CE0062346
:10269000FB7309E02F4B9B6A03F48033002B02D0BD
:1026A0000A23FB7300E000BF4DE02A4B9B6A03F056
:1026B0000C03082B06D00C2B07D0042B08D10323C6
:1026C000FB730FE00223FB730CE00623FB7309E0AE
:1026D000204B9B6A03F48013002B02D00A23FB7368
:1026E00000E000BF2FE00723FB731A4B1B6803F0C9
:1026F0008053002B03D0B3F1805F03D023E0072386
:10270000FB7302E00923FB7300BF1CE0114BDB6A83
:1027100003F46033B3F5803F08D0B3F5003F08D031
:10272000B3F5004F08D10923FB7308E00223FB73C4
:1027300005E00323FB7302E00123FB7300BF02E00B
:102740000023FB7300BFFB7B18461437BD465DF8C2
:10275000047B704700800C4090B589B000AF786072
:102760000B46FB700323FB610323FB7600233B61D5
:102770007B6803F00F03FB60FB68013B062B00F254
:10278000388101A252F823F0A52700009528000007
:1027900095280000F3290000F329000061290000BA
:1027A0008B290000FB78023B082B00F2268101A256
:1027B00052F823F0D9270000E3270000ED2700009E
:1027C00037280000FB290000FB290000FB2900003E
:1027D000FB290000FB2900000423FB610023FB769A
:1027E00039E00323FB610123FB7634E00223FB6124
:1027F0000223FB76FFF78CFA03465C1CFFF788FA8E
:10280000034620461946FFF7BFFA00F0B5FF02461F
:102810007D4B9A4206D97D4A7C4B1B6843F060038E
:10282000136018E0794A794B1B6823F0600343F08A
:10283000200313600FE00123FB610323FB76FFF706
:1028400067FA03465C1CFFF763FA03462046194605
:10285000FFF79AFA00BFFB7E18460121012200F023
:10286000F9F8FFF799FB694AFB6953626848FFF77B
:10287000D7FD0446FFF74CFA034620461946FFF7FA
:1028800083FA00F0C9F900F0D3FEB860B868FFF72A
:1028900027FBAFE0FB78013B092B00F2B08001A2DF
:1028A00052F823F0CD280000D3280000E3280000D0
:1028B000FF290000FF290000F3280000FF29000085
:1028C000FF290000FF2900001729000000237B6179
:1028D00026E000200121012200F0BCF802237B61E8
:1028E0001EE001200121012200F0B4F801237B61E8
:1028F00016E000F09DFEB860FFF70AFA0346B868DC
:102900001946FFF741FA434804210122FFF7BAF9BB
:1029100003237B6104E000237B6101233B6100BF53
:10292000FB68022B0DD13949384B9B6A23F4803365
:1029300023F003037A691A433B691B0413438B6238
:1029400058E03249314B9B6A23F4801323F00C0387
:102950007A6992001A433B691B0513438B6249E075
:10296000FB78072B02D0092B07D049E0274A274BD9
:102970001B6823F08053136006E0244A234B1B6836
:1029800043F08053136000BF34E0FB78032B14D076
:10299000092B22D0022B00D032E00020012101229D
:1029A00000F058F8194B40225A6200BF174BDB6AFF
:1029B00003F48033002BF9D01AE001200121012219
:1029C00000F048F8114B60225A6200BF0F4BDB6ADF
:1029D00003F40033002BF9D00AE00C4B20225A629A
:1029E00000BF0A4BDB6A03F40043002BF9D000BFA1
:1029F00000E000BFFFF7E6F902E000BF00E000BF23
:102A00002437BD4690BD00BF0048E80100800C405F
:102A10000043020040800C4080B483B000AF786077
:102A20000B4B9B6D03F00803002B00D00BE07B6881
:102A300003F007037B600649054BDB6F23F00702B9
:102A40007B681343CB670C37BD465DF8047B70474A
:102A500000800C4080B586B000AF0346FB710B468A
:102A6000BB7113467B71FB79042B4AD801A252F843
:102A700023F000BFC12A0000B32A0000972A0000FB
:102A8000892A0000A52A000001233B610223FB6084
:102A900001237B611DE004233B610823FB600323CA
:102AA0007B6116E010233B612023FB6005237B61E3
:102AB0000FE040233B618023FB6007237B6108E03C
:102AC0004FF480733B614FF40073FB6009237B611B
:102AD00000BFBB79002B0ED00C4A3B6913627B7997
:102AE000002B0BD000BF0A487969FFF7E1F80346D5
:102AF000002BF8D002E0054AFB68136200F08CF866
:102B000000E000BF1837BD4680BD00BF00800C400C
:102B10002C800C4080B400AF034B0022C3F884200B
:102B2000BD465DF8047B704700800C4080B400AF68
:102B3000044B45F60E02C3F88420BD465DF8047BC5
:102B4000704700BF00800C4080B584B000AF0346E2
:102B5000FB71FB79002B0BD12C4BDB6A2C4A1360E9
:102B60001120FFF749FD03461A462A4B1A704AE026
:102B7000FB79012B47D1254BD3F8843003F00103B7
:102B8000FB60FFF7D3FF0023BB60214B1B6803F002
:102B90000103BA681343BB601D4B1B6803F01003AD
:102BA000BA681343BB601A4B1B6803F04003BA6852
:102BB0001343BB60164B1B6803F00403BA6813434E
:102BC000BB60134B1B6803F48073BA681343BB608C
:102BD0000E4ABB6813620F4B1B78052B05D00D4BBB
:102BE0001B7811201946FFF7B7FD094B1B6803F04E
:102BF0000103002B02D1054B02221A62FB68002B55
:102C000001D0FFF787FF1037BD4680BD00800C4024
:102C1000A4000020A800002080B500AF0020FFF72E
:102C200093FF80BD80B483B000AF03463960FB7171
:102C3000FB79002B0DD0FB79012B0AD0FB79022BFD
:102C400007D0FB79032B04D0FB79042B01D0FB794F
:102C5000052B0949FA793B68012000FA03F318466D
:102C60001346DB0013449B000B44103358600C37B1
:102C7000BD465DF8047B70470060004080B483B0BF
:102C800000AF03463960FB71FB79002B0DD0FB7957
:102C9000012B0AD0FB79022B07D0FB79032B04D040
:102CA000FB79042B01D0FB79052B0949FA793B68A4
:102CB000012000FA03F318461346DB0013449B007F
:102CC0000B44103318600C37BD465DF8047B704729
:102CD0000060004090B585B000AFB9607B600346EE
:102CE000FB731346BB73FB7B002B0DD0FB7B012BCF
:102CF0000AD0FB7B022B07D0FB7B032B04D0FB7B92
:102D0000042B01D0FB7B052BBB7B002B0DD07B68FC
:102D1000002B05D0FB7B1846B968FFF7AFFF04E036
:102D2000FB7B1846B968FFF77DFFBB68072B1CD8F3
:102D30002A4CFA7B2948F97B0B46DB000B449B00AD
:102D400003445B68B968890008460F218140C94384
:102D50000B40B97BB8688000814019431346DB0003
:102D600013449B002344596024E01C4CFA7B1B480D
:102D7000F97B0B46DB000B449B00034408331968C6
:102D8000BB6803F18043083B9B0018460F23834038
:102D9000DB431940B87BBB6803F18043083B9B00D1
:102DA00000FA03F319431346DB0013449B0023444A
:102DB00008331960BB7B002B0DD17B68002B05D03D
:102DC000FB7B1846B968FFF759FF04E0FB7B184608
:102DD000B968FFF727FF1437BD4690BD006000407B
:102DE00080B487B000AFF860B9607A60FB6803F127
:102DF0000473DA00BB6813449B007B617B697A68CB
:102E00001A601C37BD465DF8047B704780B483B000
:102E100000AF0346FB71FB79002B06D0084A084B34
:102E20001B6843F00103136005E0054A044B1B686F
:102E300023F0010313600C37BD465DF8047B704737
:102E400000A0084080B584B000AF78601A4B5B6882
:102E5000FB600020FFF7DAFFFB6823F4830323F015
:102E60001F03FB607B685B68FA681343FB607B6849
:102E70001B7A1A46FB681343FB607B685B7A1A4631
:102E8000FB681343FB607B68DB68FA681343FB60F5
:102E90007B681B8A1A46FB681343FB60064AFB6883
:102EA00053607B681B78002B02D00120FFF7AEFF38
:102EB0001037BD4680BD00BF00A0084080B485B07B
:102EC00000AF78600D4B5B68FB60FB6823F48033D8
:102ED000FB607B68002B08D0B3F5803F00D005E095
:102EE000FB6843F48033FB6000E000BF034AFB68EB
:102EF00053601437BD465DF8047B704700A008405E
:102F000080B483B000AF03460A46FB8013467B7152
:102F10007B79002B06D00949084B9A68FB8813433C
:102F20008B6006E00549054B9A68FB88DB4313403C
:102F30008B600C37BD465DF8047B704700A00840ED
:102F400080B584B000AFF860B9601346FB71FB68D0
:102F5000072B00F2C38001A252F823F07D2F00005E
:102F6000A92F0000D52F0000013000002D300000F7
:102F70005930000085300000B1300000BB681F2BC5
:102F800007DCBA68FB79574811461A46FFF728FF55
:102F9000A5E0BB68203BBB60BA68FB79524811468C
:102FA0001A46FFF71DFF9AE0BB681F2B07DCBA68C3
:102FB000FB794E4811461A46FFF712FF8FE0BB68B7
:102FC000203BBB60BA68FB79494811461A46FFF7B7
:102FD00007FF84E0BB681F2B07DCBA68FB79454814
:102FE00011461A46FFF7FCFE79E0BB68203BBB6048
:102FF000BA68FB79404811461A46FFF7F1FE6EE0C9
:10300000BB681F2B07DCBA68FB793C4811461A469F
:10301000FFF7E6FE63E0BB68203BBB60BA68FB7964
:10302000374811461A46FFF7DBFE58E0BB681F2BF6
:1030300007DCBA68FB79334811461A46FFF7D0FE21
:103040004DE0BB68203BBB60BA68FB792E48114657
:103050001A46FFF7C5FE42E0BB681F2B07DCBA68C3
:10306000FB792A4811461A46FFF7BAFE37E0BB68DB
:10307000203BBB60BA68FB79254811461A46FFF72A
:10308000AFFE2CE0BB681F2B07DCBA68FB79214838
:1030900011461A46FFF7A4FE21E0BB68203BBB6047
:1030A000BA68FB791C4811461A46FFF799FE16E0EC
:1030B000BB681F2B07DCBA68FB79184811461A4613
:1030C000FFF78EFE0BE0BB68203BBB60BA68FB7964
:1030D000134811461A46FFF783FE00E000BF103781
:1030E000BD4680BD40A0084050A0084044A0084014
:1030F00054A0084048A0084058A008404CA00840F0
:103100005CA00840CCA00840B4A00840D0A0084073
:10311000B8A00840D4A00840BCA00840D8A00840EF
:10312000C0A0084080B487B000AFF860B9607A6092
:10313000FB68072B00F2AC8001A252F823F000BF1D
:103140006131000085310000A9310000CD3100005F
:10315000F1310000193200004132000069320000F4
:103160004E4B1B6C7B61BB68DB437A6913407B6110
:10317000BA687B6813407A6913437B61474A7B696D
:10318000136486E0454B5B6C7B61BB68DB437A690B
:1031900013407B61BA687B6813407A6913437B6193
:1031A0003E4A7B69536474E03C4B9B6C7B61BB681B
:1031B000DB437A6913407B61BA687B6813407A69A4
:1031C00013437B61354A7B69936462E0334BDB6C6C
:1031D0007B61BB68DB437A6913407B61BA687B68BB
:1031E00013407A6913437B612C4A7B69D36450E0B6
:1031F0002A4BD3F8CC307B61BB68DB437A69134040
:103200007B61BA687B6813407A6913437B61234A08
:103210007B69C2F8CC303CE0204BD3F8D0307B61E6
:10322000BB68DB437A6913407B61BA687B681340F3
:103230007A6913437B61194A7B69C2F8D03028E070
:10324000164BD3F8D4307B61BB68DB437A691340FB
:103250007B61BA687B6813407A6913437B610F4ACC
:103260007B69C2F8D43014E00C4BD3F8D8307B61C2
:10327000BB68DB437A6913407B61BA687B681340A3
:103280007A6913437B61054A7B69C2F8D83000E054
:1032900000BF1C37BD465DF8047B704700A00840A6
:1032A00080B487B000AFF860B9607A60FB68072B24
:1032B00000F2AC8001A252F823F000BFDD32000022
:1032C0000133000025330000493300006D33000056
:1032D00095330000BD330000E53300004E4B1B6DFD
:1032E0007B61BB68DB437A6913407B61BA687B68AA
:1032F00013407A6913437B61474A7B69136586E013
:10330000454B5B6D7B61BB68DB437A6913407B6136
:10331000BA687B6813407A6913437B613E4A7B69D4
:10332000536574E03C4B9B6D7B61BB68DB437A6902
:1033300013407B61BA687B6813407A6913437B61F1
:10334000354A7B69936562E0334BDB6D7B61BB681B
:10335000DB437A6913407B61BA687B6813407A6902
:1033600013437B612C4A7B69D36550E02A4BD3F829
:10337000B4307B61BB68DB437A6913407B61BA6818
:103380007B6813407A6913437B61234A7B69C2F8E7
:10339000B4303CE0204BD3F8B8307B61BB68DB43F2
:1033A0007A6913407B61BA687B6813407A6913437A
:1033B0007B61194A7B69C2F8B83028E0164BD3F814
:1033C000BC307B61BB68DB437A6913407B61BA68C0
:1033D0007B6813407A6913437B610F4A7B69C2F8AB
:1033E000BC3014E00C4BD3F8C0307B61BB68DB43CE
:1033F0007A6913407B61BA687B6813407A6913432A
:103400007B61054A7B69C2F8C03000E000BF1C3711
:10341000BD465DF8047B704700A0084080B483B0CF
:1034200000AF78600649064B5B6823F4E0127B68C6
:1034300013434B600C37BD465DF8047B704700BFFB
:1034400000A0084080B485B000AF7860194B5B697C
:10345000DBB203F00F03DBB29B00FB73154B1B6960
:1034600003F0C0039B09DAB2FB7B1343FB737B6859
:10347000FA7B9A700F4B1B69DBB203F03F03DAB2A1
:103480007B685A700B4B9B69DBB223F00F03FB7315
:10349000084BDB6903F0F0031B09DAB2FB7B134333
:1034A000FB737B68FA7B1A701437BD465DF8047BAA
:1034B000704700BFD0FF0FE080B483B000AF7860EA
:1034C0007B680D4A93420BD07B680C4A934207D02D
:1034D0007B680B4A934203D07B680A4A934201D12E
:1034E000012300E0002303F00103DBB218460C3790
:1034F000BD465DF8047B70470000014000040140B8
:1035000000080140000C014080B582B000AF786037
:1035100039607868FFF7D0FF3B681B7883F00103C0
:10352000DBB2002B02D07B6802225A607B6800224B
:103530005A623B689B781A063B68DB781B041A4387
:103540003B689B799B021A433B68DB791B02134360
:103550003A68127A1A433B685B78002B01D040230B
:1035600000E000231A433B685B7A002B01D08023E4
:1035700000E000231A433B689B7A002B01D02023F4
:1035800000E000231A433B68DB7A002B01D01023B4
:1035900000E000231A433B681B79002B02D04FF454
:1035A000005300E000231A433B685B79002B02D0F4
:1035B0004FF0805300E000231A433B681B7B002B35
:1035C00001D0082300E000231A437B681A603B689F
:1035D0001B78002B02D07B6801225A600837BD4659
:1035E00080BD00BF064880470649074A074B9A42FC
:1035F000BEBF51F8040B42F8040BF8E7FCF79CFD42
:10360000BD370000DC3A00000000002080000020F0
:10361000FEE700BF80B400AF044BDB6C1B0EDBB2D7
:103620001846BD465DF8047B704700BFB081E00FCF
:1036300080B582B000AF00F01FF87860074B5B6880
:1036400003F00F031A467B68D3407B60044A7B6813
:1036500013607B6818460837BD4680BD00800C406B
:103660001000002080B400AF024B1846BD465DF844
:10367000047B7047006CDC0280B582B000AF334B36
:10368000DB6A03F47053B3F5805F0AD0B3F5005FD3
:1036900003D0B3F5006F08D00BE02D4B1B687B60A7
:1036A00047E04FF400437B6043E02A4B1B687B609C
:1036B0003FE0264BDB6803F4E063B3F5007F1BD0EB
:1036C000B3F5007F05D8002B24D0B3F5807F16D04A
:1036D0002BE0B3F5806F09D0B3F5A06F03D0B3F53D
:1036E000407F06D021E01C4B7B6021E01B4B7B60C0
:1036F0001EE01B4B7B601BE01A4B7B6018E0FFF762
:1037000089FF0346122B02D9174B7B6010E0174B41
:103710007B600DE0FFF77EFF0346122B02D9144BAE
:103720007B6005E0134B7B6002E000237B6000BF01
:1037300000BF064B1B6803F4E0339B0B01337A6830
:10374000B2FBF3F318460837BD4680BD00800C403D
:103750000C00002008000020003FAB01406F40013A
:10376000809FD500C0D8A70040B56400C0CF6A00D4
:10377000804F120040420F0080B400AF034B1B6823
:103780001846BD465DF8047B704700BF0800002066
:1037900080B582B000AF7860064A7B681360064B44
:1037A000DB6A03F40063002B01D0FFF741FF083709
:1037B000BD4680BD0800002000800C4080B400AFF2
:1037C000BD465DF8047B704780B400AF4FF4004302
:1037D0001846BD465DF8047B704700BF80B400AF5B
:1037E0004FF47A731846BD465DF8047B704700BFFE
:1037F00080B400AF034B1B681846BD465DF8047BE0
:10380000704700BF0C00002008B5074B044613B1F9
:103810000021AFF30080054B1868836A03B1984715
:10382000204600F033F800BF00000000CC3A000052
:103830000E4B70B51E460E4C0025E41AA410A5428E
:1038400004D056F8253098470135F8E700F020F805
:10385000084B094C1E46E41AA4100025A54204D0CA
:1038600056F8253098470135F8E770BD7400002000
:1038700074000020740000207800002003460244F9
:10388000934202D003F8011BFAE77047FEE700BF3E
:10389000F8B500BFF8BC08BC9E467047F8B500BF3D
:1038A000F8BC08BC9E4670470101050707030402E7
:1038B0000302040605060D0E0E0E0D0D0D0D0E0E67
:1038C0000E0E0D0D01010507070304020302040695
:1038D00005060F1010100F0F0F0F101010100F0F04
:1038E000010105070703040203020406050611127D
:1038F00012121111111112121212111101010507E8
:1039000007030402030204060506131C1C1C131300
:1039100013131C1C1C1C13130001050706020301D2
:103920000302040604051D1E1E1E1D1D1D1D1E1E58
:103930001E1E1D1D000105070602030103020406E9
:1039400004051F2020201F1F1F1F202020201F1FB5
:1039500001010507070304020302040605062122EC
:1039600022222121212122222222212107050201B6
:10397000030604232323232323230705020103062D
:1039800004242424242424240705020103060425F6
:1039900025252525252507050201030604262626BB
:1039A00026262626000107020627272727270000AC
:1039B000000000000000131211100F0E0D0C00008B
:1039C00000002125242601010304040203020D0E38
:1039D0000D0D0E0D0E0E01010304040203020F1063
:1039E0000F0F100F10100101030404020302111243
:1039F0001111121112120101030404020302131C1B
:103A000013131C131C1C00010203040103021D1EDE
:103A10001D1D1E1D1E1E00010203040103021F20A6
:103A20001F1F201F20200101030404020302212282
:103A300021212221222205070704040605060E0E75
:103A40000D0D0E0E0D0D05070704040605061010DA
:103A50000F0F10100F0F05070704040605061212BA
:103A600011111212111105070704040605061C1C8A
:103A700013131C1C131305070603040604051E1E5E
:103A80001D1D1E1E1D1D050706030406040520201E
:103A90001F1F20201F1F05070704040605062222FA
:103AA00021212222212100003F065B4F666D7D0708
:103AB0007F6F000001000000030040000C000000C8
:103AC000000000000000000043000000140000207F
:043AD00000000000F2
:083AD40064C6FF7F0100000041
:103ADC000002000401010100006CDC020080000007
:103AEC00809FD500000000000000000000000000D6
:103AFC0000000000000000000000000000000000BA
:103B0C0000000000C83A00000000000000000000A7
:103B1C000000000000000000000000000000000099
:103B2C000000000000000000000000000000000089
:103B3C000000000000000000000000000000000079
:103B4C000000000001010000DD000000000000008A
:04000003000035E5DF
:00000001FF
